:100000000C9472000C948B000C948B000C948B005D
:100010000C948B000C948B000C948B000C948B0034
:100020000C948B000C948B000C948B000C948B0024
:100030000C948B000C9454020C9482020C94E501F5
:100040000C948B000C94B0030C94E0030C948B0084
:100050000C943D030C94FC000C942A010C948D002C
:100060000C948B000C948B000C948B000C948B00E4
:100070000C948B000C948B000C948B000C948B00D4
:100080000C948B000C948B000C948B000C948B00C4
:100090000C948B000C948B000C948B000C948B00B4
:1000A0000C948B000C948B000C948B000C948B00A4
:1000B0000C948B000C948B000C948B000C948B0094
:1000C0000C948B000C948B000C948B000C948B0084
:1000D0000C948B000C948B000C948B000C948B0074
:1000E0000C948B0011241FBECFEFD1E2DEBFCDBF39
:1000F00000E00CBF12E0A0E0B2E0E2E8F1E500E0D1
:100100000BBF02C007900D92AC31B107D9F70E9426
:10011000A6050C94BF280C9400001F920F920FB6F6
:100120000F9211240BB60F922F938F939F93EF93FF
:10013000FF93CF93DF93CDB7DEB787E490E0FC0168
:1001400080818823C9F488E490E0FC0180818823C1
:1001500099F482E091E0FC01208182E091E0277F28
:10016000FC01208382E091E0FC01208182E091E0AB
:100170002F7EFC01208331C087E490E0FC01808168
:10018000882399F082E091E0FC01208182E091E0F7
:100190002F7EFC01208382E091E0FC01208182E03F
:1001A00091E02860FC01208318C088E490E0FC0105
:1001B0008081882391F082E091E0FC01208182E03F
:1001C00091E0277FFC01208382E091E0FC01208107
:1001D00082E091E02061FC0120830000DF91CF915B
:1001E000FF91EF919F918F912F910F900BBE0F90E8
:1001F0000FBE0F901F9018951F920F920FB60F927F
:1002000011240BB60F922F938F939F93EF93FF932D
:10021000CF93DF93CDB7DEB787E490E0FC01808118
:100220008F3F49F082E091E0FC01208182E091E083
:10023000277FFC0120830000DF91CF91FF91EF9198
:100240009F918F912F910F900BBE0F900FBE0F902B
:100250001F9018951F920F920FB60F9211240BB694
:100260000F922F938F939F93EF93FF93CF93DF93EF
:10027000CDB7DEB788E490E0FC0180818F3F49F084
:1002800082E091E0FC01208182E091E02F7EFC0180
:1002900020830000DF91CF91FF91EF919F918F918B
:1002A0002F910F900BBE0F900FBE0F901F901895BF
:1002B000CF93DF93CDB7DEB781E091E0FC012081E1
:1002C00081E091E02860FC01208381E091E0FC0165
:1002D000208181E091E02061FC01208382E091E0B7
:1002E000FC01208182E091E0277FFC01208382E0F5
:1002F00091E0FC01208182E091E02F7EFC012083CF
:1003000084E490E0FC01108285E490E023E0FC01AD
:10031000208387E490E0FC01108288E490E0FC01F7
:1003200010828EE690E027E0FC01208378940000A4
:10033000DF91CF910895CF93DF930F92CDB7DEB7C2
:10034000898389818C39E4F18981843609F0C4F587
:1003500089818823DCF088E490E0FC0110828981A7
:10036000082E000C990B2FEF289FA001299F500DFC
:10037000112424E630E0CA01B9010E942127CB01F3
:100380009C0187E490E0FC0120831AC087E490E0A0
:10039000FC0110828981082E000C990B2FEF289FF9
:1003A000A001299F500D11242CE93FEFCA01B9018A
:1003B0000E942127CB019C0188E490E0FC0120836E
:1003C00000000F90DF91CF9108951F920F920FB60A
:1003D0000F9211240BB60F922F938F939F93EF934D
:1003E000FF93CF93DF93CDB7DEB783EB90E0FC01B3
:1003F00080818823C9F484EB90E0FC01808188230C
:1004000099F48EE290E0FC0120818EE290E0277F5B
:10041000FC01208384E390E0FC01208184E390E0F0
:100420002F7DFC01208331C083EB90E0FC018081B3
:10043000882399F084E390E0FC01208184E390E03C
:100440002F7DFC0120838EE290E0FC0120818EE272
:1004500090E02860FC01208318C084EB90E0FC0150
:100460008081882391F08EE290E0FC0120818EE271
:1004700090E0277FFC01208384E390E0FC01208151
:1004800084E390E02062FC0120830000DF91CF91A3
:10049000FF91EF919F918F912F910F900BBE0F9035
:1004A0000FBE0F901F9018951F920F920FB60F92CC
:1004B00011240BB60F922F938F939F93EF93FF937B
:1004C000CF93DF93CDB7DEB783EB90E0FC01808163
:1004D0008F3F49F08EE290E0FC0120818EE290E0B7
:1004E000277FFC0120830000DF91CF91FF91EF91E6
:1004F0009F918F912F910F900BBE0F900FBE0F9079
:100500001F9018951F920F920FB60F9211240BB6E1
:100510000F922F938F939F93EF93FF93CF93DF933C
:10052000CDB7DEB784EB90E0FC0180818F3F49F0CE
:1005300084E390E0FC01208184E390E02F7DFC01C6
:1005400020830000DF91CF91FF91EF919F918F91D8
:100550002F910F900BBE0F900FBE0F901F9018950C
:10056000CF93DF93CDB7DEB78DE290E0FC01208121
:100570008DE290E02860FC01208383E390E0FC01A1
:10058000208183E390E02062FC0120838EE290E0F2
:10059000FC0120818EE290E0277FFC01208384E330
:1005A00090E0FC01208184E390E02F7DFC0120831A
:1005B00080EB90E0FC01108281EB90E023E0FC01F5
:1005C000208383EB90E0FC01108284EB90E0FC013F
:1005D000108280E790E027E0FC01208378940000FF
:1005E000DF91CF910895CF93DF930F92CDB7DEB710
:1005F000898389818C39E4F18981843609F0C4F5D5
:1006000089818823DCF084EB90E0FC0110828981F1
:10061000082E000C990B2FEF289FA001299F500D49
:10062000112424E630E0CA01B9010E942127CB0140
:100630009C0183EB90E0FC0120831AC083EB90E0E7
:10064000FC0110828981082E000C990B2FEF289F46
:10065000A001299F500D11242CE93FEFCA01B901D7
:100660000E942127CB019C0184EB90E0FC012083B8
:1006700000000F90DF91CF9108951F920F920FB657
:100680000F9211240BB60F922F938F939F93EF939A
:10069000FF93CF93DF93CDB7DEB788E890E0FC01FE
:1006A000808191810097D1F48AE890E0FC018081FB
:1006B0009181009799F48EE290E0FC0120818EE216
:1006C00090E02F7DFC0120838EE290E0FC012081F0
:1006D0008EE290E02F7EFC01208333C088E890E01A
:1006E000FC0180819181009799F08EE290E0FC01FD
:1006F00020818EE290E02F7EFC0120838EE290E04C
:10070000FC0120818EE290E02062FC01208319C070
:100710008AE890E0FC0180819181009791F08EE25F
:1007200090E0FC0120818EE290E02F7DFC0120838F
:100730008EE290E0FC0120818EE290E02061FC01DD
:1007400020830000DF91CF91FF91EF919F918F91D6
:100750002F910F900BBE0F900FBE0F901F9018950A
:100760001F920F920FB60F9211240BB60F922F9378
:100770008F939F93EF93FF93CF93DF93CDB7DEB724
:1007800088E890E0FC01808191818F3F980749F0D3
:100790008EE290E0FC0120818EE290E02F7DFC0152
:1007A00020830000DF91CF91FF91EF919F918F9176
:1007B0002F910F900BBE0F900FBE0F901F901895AA
:1007C0001F920F920FB60F9211240BB60F922F9318
:1007D0008F939F93EF93FF93CF93DF93CDB7DEB7C4
:1007E0008AE890E0FC01808191818F3F980749F071
:1007F0008EE290E0FC0120818EE290E02F7EFC01F1
:1008000020830000DF91CF91FF91EF919F918F9115
:100810002F910F900BBE0F900FBE0F901F90189549
:10082000CF93DF93CDB7DEB78DE290E0FC0120815E
:100830008DE290E02062FC0120838DE290E0FC01DB
:1008400020818DE290E02061FC0120838EE290E027
:10085000FC0120818EE290E02F7DFC0120838EE25E
:1008600090E0FC0120818EE290E02F7EFC0120834D
:1008700080E890E0FC01108281E890E021E0FC013A
:10088000208388E890E0FC01118210828AE890E0E1
:10089000FC01118210828FE690E027E0FC012083AA
:1008A00078940000DF91CF9108950F931F93CF9319
:1008B000DF9300D000D000D0CDB7DEB78983898127
:1008C0008C390CF461C08981843611F00CF05CC065
:1008D000898188236CF18AE890E0FC011182108202
:1008E0008981482F880F550B660B770B8FEF9FEF91
:1008F000DC019A01AB010E9454276A837B838C83BD
:100900009D8304E610E020E030E06A817B818C81E9
:100910009D81A90198010E943527DA01C901AC0126
:10092000BD0188E890E09A01FC01318320832CC04E
:1009300088E890E0FC01118210828981482F880F9D
:10094000550B660B770B8FEF9FEFDC019A01AB0124
:100950000E9454276E837F83888799870CE91FEF55
:100960002FEF3FEF6E817F8188859985A9019801DE
:100970000E943527DA01C901AC01BD018AE890E087
:100980009A01FC0131832083000029960FB6F89468
:10099000DEBF0FBECDBFDF91CF911F910F910895A4
:1009A000CF93DF93CDB7DEB784E290E020EEFC0179
:1009B000208385E290E020EEFC01208381E091E03D
:1009C000FC01208181E091E02062FC01208382E033
:1009D00091E0FC01208182E091E02F7DFC012083E9
:1009E00084E290E0FC01208184E290E02F60FC0131
:1009F00020838AE091E0FC0180818AE091E02FEF82
:100A0000FC01208383E390E0FC01208183E390E0FC
:100A10002360FC01208385E290E0FC01208185E2D7
:100A200090E0207FFC0120838BE091E0FC0180813D
:100A30008BE091E0FC01108284E390E0FC012081D6
:100A400084E390E02C7FFC0120830000DF91CF91B4
:100A50000895CF93DF93CDB7DEB780E390E0FC013C
:100A6000208180E390E02D7FFC01208380E390E0F3
:100A7000FC01208180E390E02B7FFC01208380E358
:100A800090E0FC01208180E390E0277FFC0120833F
:100A900080E390E0FC01208180E390E02F7EFC0168
:100AA000208380E390E0FC01208180E390E02F7DB3
:100AB000FC01208387E091E0FC01208187E091E048
:100AC0002E7FFC01208387E091E0FC01208187E0FC
:100AD00091E02D7FFC01208387E091E0FC012081E3
:100AE00087E091E02B7FFC01208387E091E0FC010F
:100AF000208187E091E0277FFC01208387E091E05F
:100B0000FC01208187E091E02F7EFC01208387E0BB
:100B100091E0FC01208187E091E02F7DFC012083A2
:100B20000000DF91CF910895CF93DF93CDB7DEB76B
:100B30000E9458010E94B0020E9410040E94D0043A
:100B40000E9429050000DF91CF9108950F931F9314
:100B5000CF93DF93CDB7DEB7CA5ED3400FB6F8941C
:100B6000DEBF0FBECDBF0E949405CE0181569E4FC1
:100B70002EE0E0E0F2E0DC0101900D922A95E1F731
:100B8000CE0183559E4F2EE0EEE0F2E0DC010190B5
:100B90000D922A95E1F71A8219821C821B821E8A05
:100BA0001D8A1E821D8218861F8281E090E09A872E
:100BB000898781E090E09C878B8781E090E09E8729
:100BC0008D87188A1F861A8A198A81E090E09C8B8B
:100BD0008B8B8FE290E0DC018C91882F90E0887005
:100BE0009927009709F4BCC080E090E0A0EFB1E441
:100BF0008F8B988FA98FBA8F20E030E04AE755E4B9
:100C00006F89788D898D9A8D0E942A28C55DDD4F68
:100C1000688379838A839B83CB52D240C55DDD4F45
:100C200088819981AA81BB81CB52D2408B8F9C8FC6
:100C3000AD8FBE8F20E030E040E85FE36B8D7C8DB0
:100C40008D8D9E8D0E94A42788232CF481E090E056
:100C500098A38F8F76C020E03FEF4FE757E46B8D6E
:100C60007C8D8D8D9E8D0E942528882309F00CF4A3
:100C700052C020E030E040E251E46F89788D898DE8
:100C80009A8D0E942A28C15DDD4F688379838A830B
:100C90009B83CF52D240C15DDD4F88819981AA816B
:100CA000BB81CF52D240C554DE4F88839983AA833B
:100CB000BB83CB5BD140C554DE4F688179818A818B
:100CC0009B81CB5BD1400E94A927CD5CDD4F68831F
:100CD00079838A839B83C353D240CD5CDD4FA88147
:100CE000B981C353D240B8A3AF8F10C080E991E05F
:100CF0009AA389A389A19AA10197F1F79AA389A33D
:100D000000008F8D98A1019798A38F8F8F8D98A148
:100D1000009761F721C06B8D7C8D8D8D9E8D0E941B
:100D2000A927C95CDD4F688379838A839B83C75376
:100D3000D240C95CDD4FE881F981C753D240F8A3A6
:100D4000EF8F8F8D98A19CA38BA38BA19CA1019762
:100D5000F1F79CA38BA3000086E090E09C8B8B8B2B
:100D60008B899C898630910511F40C94E2258B893E
:100D70009C898630910511F00CF02BCF8B899C89D2
:100D80008530910511F40C9494238B899C898530CE
:100D9000910511F00CF01DCF8B899C898430910551
:100DA00011F40C9449218B899C898430910511F0B0
:100DB0000CF00FCF8B899C898330910511F40C9432
:100DC0002A188B899C898330910511F00CF001CF92
:100DD0008B899C898130910541F08B899C89823077
:100DE000910509F439C70C941F2780E00E949B01EC
:100DF00080E090E00E94F30280E090E00E945504C1
:100E00008FE290E0DC018C91882F90E0807199272F
:100E1000009709F4D7C180E090E0A0EFB1E48DA382
:100E20009EA3AFA3B8A720E030E04AE755E46DA148
:100E30007EA18FA198A50E942A28C55CDD4F6883FA
:100E400079838A839B83CB53D240C55CDD4F8881F5
:100E50009981AA81BB81CB53D24089A79AA7ABA71E
:100E6000BCA720E030E040E85FE369A57AA58BA548
:100E70009CA50E94A42788232CF481E090E09EA7E3
:100E80008DA776C020E03FEF4FE757E469A57AA52C
:100E90008BA59CA50E942528882309F00CF452C03C
:100EA00020E030E040E251E46DA17EA18FA198A541
:100EB0000E942A28C15CDD4F688379838A839B83E3
:100EC000CF53D240C15CDD4F88819981AA81BB811B
:100ED000CF53D240C154DE4F88839983AA83BB830A
:100EE000CF5BD140C154DE4F688179818A819B817B
:100EF000CF5BD1400E94A927CD5BDD4F688379830A
:100F00008A839B83C354D240CD5BDD4FA881B981D6
:100F1000C354D240BEA7ADA710C080E991E098AB02
:100F20008FA78FA598A90197F1F798AB8FA700001D
:100F30008DA59EA501979EA78DA78DA59EA500971F
:100F400061F721C069A57AA58BA59CA50E94A92758
:100F5000C95BDD4F688379838A839B83C754D24002
:100F6000C95BDD4FE881F981C754D240FEA7EDA7E8
:100F70008DA59EA59AAB89AB89A99AA90197F1F78E
:100F80009AAB89AB00008FE290E0DC018C91882F56
:100F900090E080719927009709F014C180E090E0FB
:100FA000A0EFB1E48BAB9CABADABBEAB20E030E0CF
:100FB0004AE755E46BA97CA98DA99EA90E942A281D
:100FC000C55BDD4F688379838A839B83CB54D24092
:100FD000C55BDD4F88819981AA81BB81CB54D2400A
:100FE0008FAB98AFA9AFBAAF20E030E040E85FE345
:100FF0006FA978AD89AD9AAD0E94A42788232CF4FF
:1010000081E090E09CAF8BAF76C020E03FEF4FE7F0
:1010100057E46FA978AD89AD9AAD0E942528882341
:1010200009F00CF452C020E030E040E251E46BA93A
:101030007CA98DA99EA90E942A28C15BDD4F6883E7
:1010400079838A839B83CF54D240C15BDD4F8881F3
:101050009981AA81BB81CF54D240CD53DE4F888382
:101060009983AA83BB83C35CD140CD53DE4F688193
:1010700079818A819B81C35CD1400E94A927CD5A86
:10108000DD4F688379838A839B83C355D240CD5AD1
:10109000DD4FA881B981C355D240BCAFABAF10C002
:1010A00080E991E09EAF8DAF8DAD9EAD0197F1F7D8
:1010B0009EAF8DAF00008BAD9CAD01979CAF8BAF09
:1010C0008BAD9CAD009761F72CC06FA978AD89AD51
:1010D0009AAD0E94A927C95ADD4F688379838A8314
:1010E0009B83C755D240C95ADD4FE881F981C75566
:1010F000D240FCAFEBAF2BAD3CADCE01CF96DC01C7
:101100002D933C93CE01CF96FC0180819181019774
:10111000F1F79E01215C3F4FD90111969C938E936C
:1011200000008D819E818330910509F00CF585E2E8
:1011300090E0FC018081482F9E0121563E4F8D8119
:101140009E81880F991F820F931FDC012D913C9186
:10115000119781E090E002C0880F991F2A95E2F76D
:101160008095242F282385E290E0FC01208325C070
:101170008D819E818330910501F1FCF08BE091E03F
:10118000DC018C91482F9E0121563E4F8D819E811E
:10119000880F991F820F931FFC012081318181E00C
:1011A00090E002C0880F991F2A95E2F78095242FBE
:1011B00028238BE091E0DC012C938D819E810196A8
:1011C0009E838D838FE290E0FC018081882F90E0E8
:1011D00080729927009709F473C29E012F5B3F4FDD
:1011E00080E090E0A0EFB1E4F90180839183A283D5
:1011F000B3838E010B5B1F4FCE018F5B9F4F20E0AF
:1012000030E04AE755E4DC016D917D918D919C9130
:101210000E942A28C55ADD4F688379838A839B837D
:10122000CB55D240C55ADD4F88819981AA81BB81B7
:10123000CB55D240F80180839183A283B383CE0142
:101240008B5B9F4F20E030E040E85FE3DC016D9175
:101250007D918D919C910E94A42788234CF4CE010E
:10126000875B9F4F21E030E0FC0131832083A5C0E4
:10127000CE018B5B9F4F20E03FEF4FE757E4DC014F
:101280006D917D918D919C910E942528882309F074
:101290000CF475C0CE018F5B9F4F20E030E040E240
:1012A00051E4FC0160817181828193810E942A282E
:1012B000C15ADD4F688379838A839B83CF55D2409F
:1012C000C15ADD4F88819981AA81BB81CF55D24017
:1012D000C953DE4F88839983AA83BB83C75CD140FF
:1012E0008E01075B1F4FC953DE4F688179818A8168
:1012F0009B81C75CD1400E94A927CD59DD4F6883EF
:1013000079838A839B83C356D240CD59DD4FE881D0
:10131000F981C356D240D8011196FC93EE9326C0B2
:10132000CE01855B9F4F20E931E0DC012D933C939A
:10133000CE01855B9F4FFC01808191810197F1F780
:101340009E01255B3F4FD9018D939C930000CE01F8
:10135000875B9F4F9E01275B3F4FF90120813181C1
:1013600021503109DC0111963C932E93CE01875B0D
:101370009F4FFC0180819181009791F639C08E01C9
:10138000075B1F4FCE018B5B9F4FDC016D917D9101
:101390008D919C910E94A927C959DD4F688379835B
:1013A0008A839B83C756D240C959DD4F8881998172
:1013B000C756D240F80191838083CE01835B9F4F53
:1013C0009E01275B3F4FD9012D913C91FC01318358
:1013D0002083CE01835B9F4FDC018D919C9101970F
:1013E000F1F79E01235B3F4FF90191838083000059
:1013F0008FE290E0DC018C91882F90E08072992739
:10140000009709F05DC19E01215B3F4F80E090E0B5
:10141000A0EFB1E4F90180839183A283B3838E01AD
:101420000D5A1F4FCE01815B9F4F20E030E04AE70D
:1014300055E4DC016D917D918D919C910E942A284B
:10144000C559DD4F688379838A839B83CB56D2400D
:10145000C559DD4F88819981AA81BB81CB56D24085
:10146000F80180839183A283B383CE018D5A9F4F6D
:1014700020E030E040E85FE3DC016D917D918D91EB
:101480009C910E94A42788234CF4CE01895A9F4F37
:1014900021E030E0FC0131832083A5C0CE018D5ACC
:1014A0009F4F20E03FEF4FE757E4DC016D917D91C6
:1014B0008D919C910E942528882309F00CF475C019
:1014C000CE01815B9F4F20E030E040E251E4FC011F
:1014D00060817181828193810E942A28C159DD4FE8
:1014E000688379838A839B83CF56D240C159DD4F6D
:1014F00088819981AA81BB81CF56D240C553DE4FE6
:1015000088839983AA83BB83CB5CD1408E01095A1F
:101510001F4FC553DE4F688179818A819B81CB5CE7
:10152000D1400E94A927CD58DD4F688379838A83F3
:101530009B83C357D240CD58DD4FE881F981C35713
:10154000D240D8011196FC93EE9326C0CE01875A63
:101550009F4F20E931E0DC012D933C93CE01875A67
:101560009F4FFC01808191810197F1F79E01275ADD
:101570003F4FD9018D939C930000CE01895A9F4F14
:101580009E01295A3F4FF9012081318121503109B3
:10159000DC0111963C932E93CE01895A9F4FFC019A
:1015A00080819181009791F63AC08E01095A1F4FB0
:1015B000CE018D5A9F4FDC016D917D918D919C9153
:1015C0000E94A927C958DD4F688379838A839B834A
:1015D000C757D240C958DD4F88819981C757D2403B
:1015E000F80191838083CE01855A9F4F9E01295A2D
:1015F0003F4FD9012D913C91FC0131832083CE01D5
:10160000855A9F4FDC018D919C9111970197F1F7BD
:101610009E01255A3F4FF9019183808300008D81FF
:101620009E818330910509F004F585E290E0DC01AC
:101630008C91482F9E0121563E4F8D819E81880FAF
:10164000991F820F931FFC012081318181E090E07E
:1016500002C0880F991F2A95E2F78095242F28232E
:1016600085E290E0DC012C9326C08D819E81833041
:10167000910509F104F18BE091E0FC018081482F94
:101680009E0121563E4F8D819E81880F991F820FAA
:10169000931FDC012D913C91119781E090E002C0F5
:1016A000880F991F2A95E2F78095242F28238BE035
:1016B00091E0FC0120838D819E8101979E838D8323
:1016C0008D819E818330910509F0F4F485E290E0EC
:1016D000DC018C91482F9E0121563E4F8D819E81C9
:1016E000880F991F820F931FFC012081318181E0B7
:1016F00090E002C0880F991F2A95E2F7242F282B2B
:1017000085E290E0DC012C938D819E81992324F564
:1017100085E290E0FC018081482F9E0121563E4FDA
:101720008D819E81880F991F820F931FDC012D915F
:101730003C91119781E090E002C0880F991F2A9593
:10174000E2F78095242F282385E290E0FC01208396
:1017500086E090E09E838D838D819E81833091050C
:10176000F9F0F4F08BE091E0DC018C91482F9E01C0
:1017700021563E4F8D819E81880F991F820F931FA6
:10178000FC012081318181E090E002C0880F991F27
:101790002A95E2F7242F282B8BE091E0DC012C9393
:1017A0008D819E818630910511F10CF18BE091E0E5
:1017B000FC018081482F9E0121563E4F8D819E81E4
:1017C000880F991F820F931FDC012D913C9181E0BE
:1017D00090E002C0880F991F2A95E2F78095242F88
:1017E00028238BE091E0FC0120831E821D828FE282
:1017F00090E0DC018C91882F90E08270992700970F
:1018000011F40C940F279E01235A3F4F80E090E083
:10181000A0EFB1E4F90180839183A283B3838E01A9
:101820000F591F4FCE01835A9F4F20E030E04AE707
:1018300055E4DC016D917D918D919C910E942A2847
:10184000C558DD4F688379838A839B83CB57D24009
:10185000C558DD4F88819981AA81BB81CB57D24081
:10186000F80180839183A283B383CE018F599F4F68
:1018700020E030E040E85FE3DC016D917D918D91E7
:101880009C910E94A42788234CF4CE018B599F4F32
:1018900021E030E0FC0131832083A5C0CE018F59C7
:1018A0009F4F20E03FEF4FE757E4DC016D917D91C2
:1018B0008D919C910E942528882309F00CF475C015
:1018C000CE01835A9F4F20E030E040E251E4FC011A
:1018D00060817181828193810E942A28C158DD4FE5
:1018E000688379838A839B83CF57D240C158DD4F69
:1018F00088819981AA81BB81CF57D240C153DE4FE5
:1019000088839983AA83BB83CF5CD1408E010B5916
:101910001F4FC153DE4F688179818A819B81CF5CE3
:10192000D1400E94A927CD57DD4F688379838A83F0
:101930009B83C358D240CD57DD4FE881F981C3580E
:10194000D240D8011196FC93EE9326C0CE0189595E
:101950009F4F20E931E0DC012D933C93CE01895962
:101960009F4FFC01808191810197F1F79E012959D8
:101970003F4FD9018D939C930000CE018B599F4F0F
:101980009E012B593F4FF9012081318121503109AE
:10199000DC0111963C932E93CE018B599F4FFC0195
:1019A00080819181009791F639C08E010B591F4FAC
:1019B000CE018F599F4FDC016D917D918D919C914E
:1019C0000E94A927C957DD4F688379838A839B8347
:1019D000C758D240C957DD4F88819981C758D24036
:1019E000F80191838083CE0187599F4F9E012B5927
:1019F0003F4FD9012D913C91FC0131832083CE01D1
:101A000087599F4FDC018D919C910197F1F79E01C1
:101A100027593F4FF9019183808300008FE290E0C6
:101A2000DC018C91882F90E082709927009711F04B
:101A30000C940F279E0125593F4F80E090E0A0EFC6
:101A4000B1E4F90180839183A283B3838E010159AC
:101A50001F4FCE0185599F4F20E030E04AE755E403
:101A6000DC016D917D918D919C910E942A28C55732
:101A7000DD4F688379838A839B83CB58D240C557D7
:101A8000DD4F88819981AA81BB81CB58D240F80172
:101A900080839183A283B383CE0181599F4F20E03D
:101AA00030E040E85FE3DC016D917D918D919C9188
:101AB0000E94A42788234CF4CE018D589F4F21E02B
:101AC00030E0FC0131832083A5C0CE0181599F4FB6
:101AD00020E03FEF4FE757E4DC016D917D918D9160
:101AE0009C910E942528882309F00CF475C0CE0132
:101AF00085599F4F20E030E040E251E4FC016081D5
:101B00007181828193810E942A28C157DD4F6883A9
:101B100079838A839B83CF58D240C157DD4F888118
:101B20009981AA81BB81CF58D240CD52DE4F8883A4
:101B30009983AA83BB83C35DD1408E010D581F4F8B
:101B4000CD52DE4F688179818A819B81C35DD1400E
:101B50000E94A927CD56DD4F688379838A839B83B2
:101B6000C359D240CD56DD4FE881F981C359D240E7
:101B7000D8011196FC93EE9326C0CE018B589F4F4F
:101B800020E931E0DC012D933C93CE018B589F4F2F
:101B9000FC01808191810197F1F79E012B583F4F05
:101BA000D9018D939C930000CE018D589F4F9E01CB
:101BB0002D583F4FF9012081318121503109DC013D
:101BC00011963C932E93CE018D589F4FFC0180813E
:101BD0009181009791F63AC08E010D581F4FCE01AA
:101BE00081599F4FDC016D917D918D919C910E9457
:101BF000A927C956DD4F688379838A839B83C75998
:101C0000D240C956DD4F88819981C759D240F80129
:101C100091838083CE0189589F4F9E012D583F4F5D
:101C2000D9012D913C91FC0131832083CE0189584B
:101C30009F4FDC018D919C9111970197F1F79E01C7
:101C400029583F4FF90191838083000082E090E0A2
:101C50009C8B8B8B0C940F278FE290E0DC018C9196
:101C6000882F90E080719927009709F472C29E0135
:101C700027583F4F80E090E0A0EFB1E4F901808366
:101C80009183A283B3838E0103581F4FCE018758DF
:101C90009F4F20E030E04AE755E4DC016D917D91F3
:101CA0008D919C910E942A28C556DD4F68837983C7
:101CB0008A839B83CB59D240C556DD4F8881998159
:101CC000AA81BB81CB59D240F80180839183A28342
:101CD000B383CE0183589F4F20E030E040E85FE3BC
:101CE000DC016D917D918D919C910E94A4278823A8
:101CF0004CF4CE018F579F4F21E030E0FC0131833F
:101D00002083A5C0CE0183589F4F20E03FEF4FE7CF
:101D100057E4DC016D917D918D919C910E94252865
:101D2000882309F00CF475C0CE0187589F4F20E03E
:101D300030E040E251E4FC01608171818281938155
:101D40000E942A28C156DD4F688379838A839B834A
:101D5000CF59D240C156DD4F88819981AA81BB817C
:101D6000CF59D240C952DE4F88839983AA83BB835F
:101D7000C75DD1408E010F571F4FC952DE4F68819A
:101D800079818A819B81C75DD1400E94A927CD5569
:101D9000DD4F688379838A839B83C35AD240CD55B4
:101DA000DD4FE881F981C35AD240D8011196FC93E6
:101DB000EE9326C0CE018D579F4F20E931E0DC0124
:101DC0002D933C93CE018D579F4FFC0180819181D3
:101DD0000197F1F79E012D573F4FD9018D939C93A9
:101DE0000000CE018F579F4F9E012F573F4FF901A3
:101DF0002081318121503109DC0111963C932E93D1
:101E0000CE018F579F4FFC0180819181009791F601
:101E100039C08E010F571F4FCE0183589F4FDC01F1
:101E20006D917D918D919C910E94A927C955DD4F9F
:101E3000688379838A839B83C75AD240C955DD4F13
:101E400088819981C75AD240F80191838083CE015D
:101E50008B579F4F9E012F573F4FD9012D913C919A
:101E6000FC0131832083CE018B579F4FDC018D9184
:101E70009C910197F1F79E012B573F4FF9019183F8
:101E8000808300008FE290E0DC018C91882F90E04D
:101E900080719927009709F05CC19E0129573F4F37
:101EA00080E090E0A0EFB1E4F90180839183A28308
:101EB000B3838E0105571F4FCE0189579F4F20E0F6
:101EC00030E04AE755E4DC016D917D918D919C9164
:101ED0000E942A28C555DD4F688379838A839B83B6
:101EE000CB5AD240C555DD4F88819981AA81BB81EB
:101EF000CB5AD240F80180839183A283B383CE0171
:101F000085579F4F20E030E040E85FE3DC016D91B2
:101F10007D918D919C910E94A42788234CF4CE0141
:101F200081579F4F21E030E0FC0131832083A5C021
:101F3000CE0185579F4F20E03FEF4FE757E4DC018C
:101F40006D917D918D919C910E942528882309F0A7
:101F50000CF475C0CE0189579F4F20E030E040E27D
:101F600051E4FC0160817181828193810E942A2861
:101F7000C155DD4F688379838A839B83CF5AD240D2
:101F8000C155DD4F88819981AA81BB81CF5AD2404A
:101F9000C552DE4F88839983AA83BB83CB5DD14032
:101FA0008E0101571F4FC552DE4F688179818A81AA
:101FB0009B81CB5DD1400E94A927CD54DD4F688322
:101FC00079838A839B83C35BD240CD54DD4FE88104
:101FD000F981C35BD240D8011196FC93EE9326C0E1
:101FE000CE018F569F4F20E931E0DC012D933C93C9
:101FF000CE018F569F4FFC01808191810197F1F7AF
:102000009E012F563F4FD9018D939C930000CE0126
:1020100081579F4F9E0121573F4FF9012081318108
:1020200021503109DC0111963C932E93CE0181574A
:102030009F4FFC0180819181009791F63AC08E01FB
:1020400001571F4FCE0185579F4FDC016D917D9148
:102050008D919C910E94A927C954DD4F6883798393
:102060008A839B83C75BD240C954DD4F88819981A5
:10207000C75BD240F80191838083CE018D569F4F7C
:102080009E0121573F4FD9012D913C91FC01318395
:102090002083CE018D569F4FDC018D919C9111972D
:1020A0000197F1F79E012D563F4FF90191838083EF
:1020B00000008F8198858130910509F004F584E353
:1020C00090E0DC018C91482F9E0123553E4F8F817B
:1020D0009885880F991F820F931FFC012081318101
:1020E00081E090E002C0880F991F2A95E2F7809561
:1020F000242F282384E390E0DC012C9325C08F81DA
:1021000098858130910501F1FCF08BE091E0FC01B4
:102110008081482F9E0123553E4F8F819885880FDF
:10212000991F820F931FDC012D913C9181E090E07B
:1021300002C0880F991F2A95E2F78095242F282343
:102140008BE091E0FC0120838F8198850196988730
:102150008F838FE290E0DC018C91882F90E0807279
:102160009927009709F473C29E012B563F4F80E0D8
:1021700090E0A0EFB1E4F90180839183A283B3835F
:102180008E0107561F4FCE018B569F4F20E030E047
:102190004AE755E4DC016D917D918D919C910E94FF
:1021A0002A28C554DD4F688379838A839B83CB5B60
:1021B000D240C554DD4F88819981AA81BB81CB5B18
:1021C000D240F80180839183A283B383CE018756E6
:1021D0009F4F20E030E040E85FE3DC016D917D91AE
:1021E0008D919C910E94A42788234CF4CE018356A4
:1021F0009F4F21E030E0FC0131832083A5C0CE0158
:1022000087569F4F20E03FEF4FE757E4DC016D9189
:102210007D918D919C910E942528882309F00CF4D2
:1022200075C0CE018B569F4F20E030E040E251E474
:10223000FC0160817181828193810E942A28C154AE
:10224000DD4F688379838A839B83CF5BD240C154FF
:10225000DD4F88819981AA81BB81CF5BD240C15279
:10226000DE4F88839983AA83BB83CF5DD1408E01E3
:1022700003561F4FC152DE4F688179818A819B814D
:10228000CF5DD1400E94A927CD53DD4F688379836C
:102290008A839B83C35CD240CD53DD4FE881F981B3
:1022A000C35CD240D8011196FC93EE9326C0CE01B8
:1022B00081569F4F20E931E0DC012D933C93CE0104
:1022C00081569F4FFC01808191810197F1F79E011A
:1022D00021563F4FD9018D939C930000CE01835628
:1022E0009F4F9E0123563F4FF9012081318121509C
:1022F0003109DC0111963C932E93CE0183569F4FFA
:10230000FC0180819181009791F639C08E010356BE
:102310001F4FCE0187569F4FDC016D917D918D91AE
:102320009C910E94A927C953DD4F688379838A83D2
:102330009B83C75CD240C953DD4F88819981C75CBC
:10234000D240F80191838083CE018F559F4F9E012B
:1023500023563F4FD9012D913C91FC0131832083BD
:10236000CE018F559F4FDC018D919C910197F1F724
:102370009E012F553F4FF9019183808300008FE22A
:1023800090E0DC018C91882F90E080729927009773
:1023900009F05DC19E012D553F4F80E090E0A0EF18
:1023A000B1E4F90180839183A283B3838E0109553F
:1023B0001F4FCE018D559F4F20E030E04AE755E496
:1023C000DC016D917D918D919C910E942A28C553CD
:1023D000DD4F688379838A839B83CB5CD240C5536E
:1023E000DD4F88819981AA81BB81CB5CD240F80105
:1023F00080839183A283B383CE0189559F4F20E0D0
:1024000030E040E85FE3DC016D917D918D919C911E
:102410000E94A42788234CF4CE0185559F4F21E0CC
:1024200030E0FC0131832083A5C0CE0189559F4F48
:1024300020E03FEF4FE757E4DC016D917D918D91F6
:102440009C910E942528882309F00CF475C0CE01C8
:102450008D559F4F20E030E040E251E4FC01608167
:102460007181828193810E942A28C153DD4F688344
:1024700079838A839B83CF5CD240C153DD4F8881AF
:102480009981AA81BB81CF5CD240CD51DE4F888338
:102490009983AA83BB83C35ED1408E0105551F4F2C
:1024A000CD51DE4F688179818A819B81C35ED140A5
:1024B0000E94A927CD52DD4F688379838A839B834D
:1024C000C35DD240CD52DD4FE881F981C35DD2407A
:1024D000D8011196FC93EE9326C0CE0183559F4FF1
:1024E00020E931E0DC012D933C93CE0183559F4FD1
:1024F000FC01808191810197F1F79E0123553F4FA7
:10250000D9018D939C930000CE0185559F4F9E016C
:1025100025553F4FF9012081318121503109DC01DE
:1025200011963C932E93CE0185559F4FFC018081DF
:102530009181009791F63AC08E0105551F4FCE014B
:1025400089559F4FDC016D917D918D919C910E94E9
:10255000A927C952DD4F688379838A839B83C75D2E
:10256000D240C952DD4F88819981C75DD240F801C0
:1025700091838083CE0181559F4F9E0125553F4F0A
:10258000D9012D913C91FC0131832083CE018155ED
:102590009F4FDC018D919C9111970197F1F79E015E
:1025A00021553F4FF9019183808300008F819885E9
:1025B0008130910509F004F584E390E0DC018C9111
:1025C000482F9E0123553E4F8F819885880F991F74
:1025D000820F931FFC012081318181E090E002C0D5
:1025E000880F991F2A95E2F78095242F282384E3EA
:1025F00090E0DC012C9326C08F8198858130910575
:1026000009F104F18BE091E0FC018081482F9E01EB
:1026100023553E4F8F819885880F991F820F931FF6
:10262000DC012D913C91119781E090E002C0880F70
:10263000991F2A95E2F78095242F28238BE091E0BB
:10264000FC0120838F819885019798878F838F81E4
:1026500098858130910509F0F4F484E390E0DC0181
:102660008C91482F9E0123553E4F8F819885880F6E
:10267000991F820F931FFC012081318181E090E03E
:1026800002C0880F991F2A95E2F7242F282B84E394
:1026900090E0DC012C938F819885992324F584E3C5
:1026A00090E0FC018081482F9E0123553E4F8F8191
:1026B0009885880F991F820F931FDC012D913C9103
:1026C000119781E090E002C0880F991F2A95E2F7E8
:1026D0008095242F282384E390E0FC01208386E06A
:1026E00090E098878F838F81988581309105F9F0EC
:1026F000F4F08BE091E0DC018C91482F9E01235592
:102700003E4F8F819885880F991F820F931FFC0180
:102710002081318181E090E002C0880F991F2A95C5
:10272000E2F7242F282B8BE091E0DC012C938F81A2
:1027300098858630910511F10CF18BE091E0FC0158
:102740008081482F9E0123553E4F8F819885880FA9
:10275000991F820F931FDC012D913C9181E090E045
:1027600002C0880F991F2A95E2F78095242F28230D
:102770008BE091E0FC01208318861F828FE290E0BD
:10278000DC018C91882F90E082709927009709F4E2
:102790002CC29E012F543F4F80E090E0A0EFB1E4A7
:1027A000F90180839183A283B3838E010B541F4F61
:1027B000CE018F549F4F20E030E04AE755E4DC0122
:1027C0006D917D918D919C910E942A28C552DD4F7B
:1027D000688379838A839B83CB5DD240C552DD4F6A
:1027E00088819981AA81BB81CB5DD240F801808329
:1027F0009183A283B383CE018B549F4F20E030E0BE
:1028000040E85FE3DC016D917D918D919C910E9488
:10281000A42788234CF4CE0187549F4F21E030E059
:10282000FC0131832083A5C0CE018B549F4F20E053
:102830003FEF4FE757E4DC016D917D918D919C91C5
:102840000E942528882309F00CF475C0CE018F540E
:102850009F4F20E030E040E251E4FC016081718153
:10286000828193810E942A28C152DD4F6883798337
:102870008A839B83CF5DD240C152DD4F888199818D
:10288000AA81BB81CF5DD240C951DE4F8883998335
:10289000AA83BB83C75ED1408E0107541F4FC95125
:1028A000DE4F688179818A819B81C75ED1400E9419
:1028B000A927CD51DD4F688379838A839B83C35ECB
:1028C000D240CD51DD4FE881F981C35ED240D801BD
:1028D0001196FC93EE9326C0CE0185549F4F20E9BC
:1028E00031E0DC012D933C93CE0185549F4FFC01D8
:1028F000808191810197F1F79E0125543F4FD901C5
:102900008D939C930000CE0187549F4F9E012754C6
:102910003F4FF9012081318121503109DC011196AD
:102920003C932E93CE0187549F4FFC01808191816F
:10293000009791F639C08E0107541F4FCE018B547A
:102940009F4FDC016D917D918D919C910E94A927F3
:10295000C951DD4F688379838A839B83C75ED240E8
:10296000C951DD4F88819981C75ED240F8019183BA
:102970008083CE0183549F4F9E0127543F4FD9013E
:102980002D913C91FC0131832083CE0183549F4FD4
:10299000DC018D919C910197F1F79E0123543F4FEB
:1029A000F9019183808300008FE290E0DC018C913B
:1029B000882F90E082709927009709F016C19E0138
:1029C00021543F4F80E090E0A0EFB1E4F901808313
:1029D0009183A283B3838E010D531F4FCE01815487
:1029E0009F4F20E030E04AE755E4DC016D917D9196
:1029F0008D919C910E942A28C551DD4F688379836F
:102A00008A839B83CB5ED240C551DD4F88819981FB
:102A1000AA81BB81CB5ED240F80180839183A283DF
:102A2000B383CE018D539F4F20E030E040E85FE359
:102A3000DC016D917D918D919C910E94A42788234A
:102A40004CF4CE0189539F4F21E030E0FC013183EB
:102A50002083A5C0CE018D539F4F20E03FEF4FE76D
:102A600057E4DC016D917D918D919C910E94252808
:102A7000882309F00CF475C0CE0181549F4F20E0EB
:102A800030E040E251E4FC016081718182819381F8
:102A90000E942A28C151DD4F688379838A839B83F2
:102AA000CF5ED240C151DD4F88819981AA81BB811F
:102AB000CF5ED240C551DE4F88839983AA83BB8302
:102AC000CB5ED1408E0109531F4FC551DE4F688147
:102AD00079818A819B81CB5ED1400E94A927CD500C
:102AE000DD4F688379838A839B83C35FD240CD5057
:102AF000DD4FE881F981C35FD240D8011196FC9384
:102B0000EE9326C0CE0187539F4F20E931E0DC01D0
:102B10002D933C93CE0187539F4FFC01808191817F
:102B20000197F1F79E0127533F4FD9018D939C9355
:102B30000000CE0189539F4F9E0129533F4FF90159
:102B40002081318121503109DC0111963C932E9373
:102B5000CE0189539F4FFC0180819181009791F6AE
:102B600039C08E0109531F4FCE018D539F4FDC0199
:102B70006D917D918D919C910E94A927C950DD4F47
:102B8000688379838A839B83C75FD240C950DD4FB6
:102B900088819981C75FD240F80191838083CE01FB
:102BA00085539F4F9E0129533F4FD9012D913C9151
:102BB000FC0131832083CE0185539F4FDC018D9131
:102BC0009C910197F1F79E0125533F4FF9019183A5
:102BD000808300008EE10E949B018EE190E00E94C4
:102BE000F30283E090E09C8B8B8B8FE290E0DC0122
:102BF0008C91882F90E084709927009711F40C94A1
:102C000012279E0123533F4F80E090E0A0EFB1E4F4
:102C1000F90180839183A283B3838E010F521F4FEA
:102C2000CE0183539F4F20E030E04AE755E4DC01BA
:102C30006D917D918D919C910E942A28C550DD4F08
:102C4000688379838A839B83CB5FD240C550DD4FF5
:102C500088819981AA81BB81CB5FD240F8018083B2
:102C60009183A283B383CE018F529F4F20E030E047
:102C700040E85FE3DC016D917D918D919C910E9414
:102C8000A42788234CF4CE018B529F4F21E030E0E3
:102C9000FC0131832083A5C0CE018F529F4F20E0DD
:102CA0003FEF4FE757E4DC016D917D918D919C9151
:102CB0000E942528882309F00CF475C0CE018353A7
:102CC0009F4F20E030E040E251E4FC0160817181DF
:102CD000828193810E942A28C150DD4F68837983C5
:102CE0008A839B83CF5FD240C150DD4F8881998119
:102CF000AA81BB81CF5FD240C151DE4F88839983C7
:102D0000AA83BB83CF5ED1408E010B521F4FC151AE
:102D1000DE4F688179818A819B81CF5ED1400E949C
:102D2000A927CD5FDC4F688379838A839B83C35057
:102D3000D340CD5FDC4FE881F981C350D340D80147
:102D40001196FC93EE9326C0CE0189529F4F20E945
:102D500031E0DC012D933C93CE0189529F4FFC0161
:102D6000808191810197F1F79E0129523F4FD9014E
:102D70008D939C930000CE018B529F4F9E012B524E
:102D80003F4FF9012081318121503109DC01119639
:102D90003C932E93CE018B529F4FFC0180819181F9
:102DA000009791F639C08E010B521F4FCE018F5202
:102DB0009F4FDC016D917D918D919C910E94A9277F
:102DC000C95FDC4F688379838A839B83C750D34074
:102DD000C95FDC4F88819981C750D340F801918346
:102DE0008083CE0187529F4F9E012B523F4FD901C6
:102DF0002D913C91FC0131832083CE0187529F4F5E
:102E0000DC018D919C910197F1F79E0127523F4F74
:102E1000F9019183808300008FE290E0DC018C91C6
:102E2000882F90E084709927009711F00C94122756
:102E30009E0125523F4F80E090E0A0EFB1E4F90100
:102E400080839183A283B3838E0101521F4FCE01F1
:102E500085529F4F20E030E04AE755E4DC016D9158
:102E60007D918D919C910E942A28C55FDC4F6883DB
:102E700079838A839B83CB50D340C55FDC4F8881A5
:102E80009981AA81BB81CB50D340F8018083918383
:102E9000A283B383CE0181529F4F20E030E040E80F
:102EA0005FE3DC016D917D918D919C910E94A4273F
:102EB00088234CF4CE018D519F4F21E030E0FC017E
:102EC00031832083A5C0CE0181529F4F20E03FEF88
:102ED0004FE757E4DC016D917D918D919C910E94AB
:102EE0002528882309F00CF475C0CE0185529F4F28
:102EF00020E030E040E251E4FC0160817181828198
:102F000093810E942A28C15FDC4F688379838A837A
:102F10009B83CF50D340C15FDC4F88819981AA81C8
:102F2000BB81CF50D340CD50DE4F88839983AA8395
:102F3000BB83C35FD1408E010D511F4FCD50DE4F7B
:102F4000688179818A819B81C35FD1400E94A927D2
:102F5000CD5EDC4F688379838A839B83C351D340E2
:102F6000CD5EDC4FE881F981C351D340D801119681
:102F7000FC93EE9326C0CE018B519F4F20E931E0A8
:102F8000DC012D933C93CE018B519F4FFC0180813E
:102F900091810197F1F79E012B513F4FD9018D93FC
:102FA0009C930000CE018D519F4F9E012D513F4FAC
:102FB000F9012081318121503109DC0111963C93C6
:102FC0002E93CE018D519F4FFC01808191810097FE
:102FD00091F63AC08E010D511F4FCE0181529F4F85
:102FE000DC016D917D918D919C910E94A927C95E14
:102FF000DC4F688379838A839B83C751D340C95E42
:10300000DC4F88819981C751D340F8019183808337
:10301000CE0189519F4F9E012D513F4FD9012D91D6
:103020003C91FC0131832083CE0189519F4FDC010B
:103030008D919C9111970197F1F79E0129513F4F76
:10304000F90191838083000081E090E09C8B8B8B61
:103050000C94122786E091E0DC018C91882F90E09F
:1030600088709927009709F426C29E0127513F4F87
:1030700080E090E0A0EFB1E4F90180839183A28326
:10308000B3838E0103511F4FCE0187519F4F20E024
:1030900030E04AE755E4DC016D917D918D919C9182
:1030A0000E942A28C55EDC4F688379838A839B83CC
:1030B000CB51D340C55EDC4F88819981AA81BB8109
:1030C000CB51D340F80180839183A283B383CE0197
:1030D00083519F4F20E030E040E85FE3DC016D91D9
:1030E0007D918D919C910E94A42788234CF4CE0160
:1030F0008F509F4F21E030E0FC0131832083A5C039
:10310000CE0183519F4F20E03FEF4FE757E4DC01B2
:103110006D917D918D919C910E942528882309F0C5
:103120000CF475C0CE0187519F4F20E030E040E2A3
:1031300051E4FC0160817181828193810E942A287F
:10314000C15EDC4F688379838A839B83CF51D340F0
:10315000C15EDC4F88819981AA81BB81CF51D34068
:10316000C950DE4F88839983AA83BB83C75FD14050
:103170008E010F501F4FC950DE4F688179818A81BF
:103180009B81C75FD1400E94A927CD5DDC4F68833A
:1031900079838A839B83C352D340CD5DDC4FE88122
:1031A000F981C352D340D8011196FC93EE9326C007
:1031B000CE018D509F4F20E931E0DC012D933C93EF
:1031C000CE018D509F4FFC01808191810197F1F7D5
:1031D0009E012D503F4FD9018D939C930000CE014D
:1031E0008F509F4F9E012F503F4FF9012081318119
:1031F00021503109DC0111963C932E93CE018F5062
:103200009F4FFC0180819181009791F639C08E011A
:103210000F501F4FCE0183519F4FDC016D917D9167
:103220008D919C910E94A927C95DDC4F68837983A9
:103230008A839B83C752D340C95DDC4F88819981C3
:10324000C752D340F80191838083CE018B509F4FAA
:103250009E012F503F4FD9012D913C91FC013183AC
:103260002083CE018B509F4FDC018D919C91019763
:10327000F1F79E012B503F4FF901918380830000AD
:1032800086E091E0DC018C91882F90E0887099278E
:10329000009709F010C19E0129503F4F80E090E057
:1032A000A0EFB1E4F90180839183A283B3838E01FF
:1032B00005501F4FCE0189509F4F20E030E04AE774
:1032C00055E4DC016D917D918D919C910E942A289D
:1032D000C55DDC4F688379838A839B83CB52D3405F
:1032E000C55DDC4F88819981AA81BB81CB52D340D7
:1032F000F80180839183A283B383CE0185509F4FD1
:1033000020E030E040E85FE3DC016D917D918D913C
:103310009C910E94A42788234CF4CE0181509F4F9A
:1033200021E030E0FC0131832083A5C0CE0185502F
:103330009F4F20E03FEF4FE757E4DC016D917D9117
:103340008D919C910E942528882309F00CF475C06A
:10335000CE0189509F4F20E030E040E251E4FC0173
:1033600060817181828193810E942A28C15DDC4F36
:10337000688379838A839B83CF52D340C15DDC4FBE
:1033800088819981AA81BB81CF52D340C550DE4F3D
:1033900088839983AA83BB83CB5FD1408E01015080
:1033A0001F4FC550DE4F688179818A819B81CB5F39
:1033B000D1400E94A927CD5CDC4F688379838A8342
:1033C0009B83C353D340CD5CDC4FE881F981C35369
:1033D000D340D8011196FC93EE9326C0CE018F5FA7
:1033E0009E4F20E931E0DC012D933C93CE018F5FAD
:1033F0009E4FFC01808191810197F1F79E012F5F23
:103400003E4FD9018D939C930000CE0181509F4F78
:103410009E0121503F4FF901208131812150310916
:10342000DC0111963C932E93CE0181509F4FFC01FD
:1034300080819181009791F639C08E0101501F4F14
:10344000CE0185509F4FDC016D917D918D919C91B6
:103450000E94A927C95CDC4F688379838A839B8398
:10346000C753D340C95CDC4F88819981C753D3408F
:10347000F80191838083CE018D5F9E4F9E01215084
:103480003F4FD9012D913C91FC0131832083CE0126
:103490008D5F9E4FDC018D919C910197F1F79E010C
:1034A0002D5F3E4FF90191838083000089819A81CD
:1034B00001969A83898386E091E0DC018C91882FC4
:1034C00090E080719927009709F427C29E012B5F35
:1034D0003E4F80E090E0A0EFB1E4F901808391835A
:1034E000A283B3838E01075F1E4FCE018B5F9E4F79
:1034F00020E030E04AE755E4DC016D917D918D914B
:103500009C910E942A28C55CDC4F688379838A835A
:103510009B83CB53D340C55CDC4F88819981AA81C2
:10352000BB81CB53D340F80180839183A283B383C3
:10353000CE01875F9E4F20E030E040E85FE3DC0192
:103540006D917D918D919C910E94A42788234CF4CC
:10355000CE01835F9E4F21E030E0FC013183208368
:10356000A5C0CE01875F9E4F20E03FEF4FE757E4B5
:10357000DC016D917D918D919C910E94252888237D
:1035800009F00CF475C0CE018B5F9E4F20E030E057
:1035900040E251E4FC0160817181828193810E944B
:1035A0002A28C15CDC4F688379838A839B83CF534D
:1035B000D340C15CDC4F88819981AA81BB81CF5304
:1035C000D340C150DE4F88839983AA83BB83CF5FEA
:1035D000D1408E01035F1E4FC150DE4F688179815B
:1035E0008A819B81CF5FD1400E94A927CD5BDC4FB0
:1035F000688379838A839B83C354D340CD5BDC4F3C
:10360000E881F981C354D340D8011196FC93EE931D
:1036100026C0CE01815F9E4F20E931E0DC012D9371
:103620003C93CE01815F9E4FFC0180819181019787
:10363000F1F79E01215F3E4FD9018D939C930000CD
:10364000CE01835F9E4F9E01235F3E4FF901208193
:10365000318121503109DC0111963C932E93CE012A
:10366000835F9E4FFC0180819181009791F639C064
:103670008E01035F1E4FCE01875F9E4FDC016D916F
:103680007D918D919C910E94A927C95BDC4F688335
:1036900079838A839B83C754D340C95BDC4F88817D
:1036A0009981C754D340F80191838083CE018F5E06
:1036B0009E4F9E01235F3E4FD9012D913C91FC010D
:1036C00031832083CE018F5E9E4FDC018D919C91D2
:1036D0000197F1F79E012F5E3E4FF90191838083A0
:1036E000000086E091E0DC018C91882F90E08071F1
:1036F0009927009709F011C19E012D5E3E4F80E091
:1037000090E0A0EFB1E4F90180839183A283B383B9
:103710008E01095E1E4FCE018D5E9E4F20E030E08F
:103720004AE755E4DC016D917D918D919C910E9459
:103730002A28C55BDC4F688379838A839B83CB54BB
:10374000D340C55BDC4F88819981AA81BB81CB5472
:10375000D340F80180839183A283B383CE01895E35
:103760009E4F20E030E040E85FE3DC016D917D9109
:103770008D919C910E94A42788234CF4CE01855EF4
:103780009E4F21E030E0FC0131832083A5C0CE01B3
:10379000895E9E4F20E03FEF4FE757E4DC016D91DB
:1037A0007D918D919C910E942528882309F00CF42D
:1037B00075C0CE018D5E9E4F20E030E040E251E4C6
:1037C000FC0160817181828193810E942A28C15B02
:1037D000DC4F688379838A839B83CF54D340C15B5A
:1037E000DC4F88819981AA81BB81CF54D340CD5FC2
:1037F000DD4F88839983AA83BB83C350D2408E0157
:10380000055E1E4FCD5FDD4F688179818A819B8186
:10381000C350D2400E94A927CD5ADC4F68837983D8
:103820008A839B83C355D340CD5ADC4FE881F9810D
:10383000C355D340D8011196FC93EE9326C0CE0118
:10384000835E9E4F20E931E0DC012D933C93CE0155
:10385000835E9E4FFC01808191810197F1F79E016B
:10386000235E3E4FD9018D939C930000CE01855E6F
:103870009E4F9E01255E3E4FF901208131812150EE
:103880003109DC0111963C932E93CE01855E9E4F4B
:10389000FC0180819181009791F63AC08E01055E0E
:1038A0001E4FCE01895E9E4FDC016D917D918D9101
:1038B0009C910E94A927C95ADC4F688379838A8327
:1038C0009B83C755D340C95ADC4F88819981C7551E
:1038D000D340F80191838083CE01815E9E4F9E018B
:1038E000255E3E4FD9012D913C91FC01318320830F
:1038F000CE01815E9E4FDC018D919C9111970197C5
:10390000F1F79E01215E3E4FF90191838083000013
:103910008B819C8101969C838B832D813E81898143
:103920009A812817390739F480E00E949B0181E0D1
:1039300090E0988B8F872F8138858B819C81281709
:10394000390741F480E090E00E94F30281E090E0CA
:103950009A8B898B89819A818230910511F41A861C
:1039600019868B819C818230910511F41C861B86FF
:1039700086E091E0DC018C91882F90E0817099279E
:10398000009709F417C189859A85009709F012C13B
:103990009E012F5D3E4F80E090E0A0EFB1E4F90181
:1039A00080839183A283B3838E010B5D1E4FCE0172
:1039B0008F5D9E4F20E030E04AE755E4DC016D91D9
:1039C0007D918D919C910E942A28C55ADC4F688375
:1039D00079838A839B83CB55D340C55ADC4F88813A
:1039E0009981AA81BB81CB55D340F8018083918313
:1039F000A283B383CE018B5D9E4F20E030E040E890
:103A00005FE3DC016D917D918D919C910E94A427D3
:103A100088234CF4CE01875D9E4F21E030E0FC010D
:103A200031832083A5C0CE018B5D9E4F20E03FEF08
:103A30004FE757E4DC016D917D918D919C910E943F
:103A40002528882309F00CF475C0CE018F5D9E4FA8
:103A500020E030E040E251E4FC016081718182812C
:103A600093810E942A28C15ADC4F688379838A8314
:103A70009B83CF55D340C15ADC4F88819981AA815D
:103A8000BB81CF55D340C95FDD4F88839983AA831B
:103A9000BB83C750D2408E01075D1E4FC95FDD4F0B
:103AA000688179818A819B81C750D2400E94A92771
:103AB000CD59DC4F688379838A839B83C356D34077
:103AC000CD59DC4FE881F981C356D340D801119616
:103AD000FC93EE9326C0CE01855D9E4F20E931E038
:103AE000DC012D933C93CE01855D9E4FFC018081CE
:103AF00091810197F1F79E01255D3E4FD9018D938C
:103B00009C930000CE01875D9E4F9E01275D3E4F36
:103B1000F9012081318121503109DC0111963C935A
:103B20002E93CE01875D9E4FFC018081918100978D
:103B300091F639C08E01075D1E4FCE018B5D9E4F01
:103B4000DC016D917D918D919C910E94A927C959AD
:103B5000DC4F688379838A839B83C756D340C959D6
:103B6000DC4F88819981C756D340F80191838083C7
:103B7000CE01835D9E4F9E01275D3E4FD9012D9161
:103B80003C91FC0131832083CE01835D9E4FDC019B
:103B90008D919C910197F1F79E01235D3E4FF901B4
:103BA00091838083000080E00E949B0181E090E08F
:103BB0009A87898786E091E0DC018C91882F90E0DC
:103BC00082709927009709F418C18B859C8500970E
:103BD00009F013C19E01215D3E4F80E090E0A0EF0F
:103BE000B1E4F90180839183A283B3838E010D5CDC
:103BF0001E4FCE01815D9E4F20E030E04AE755E444
:103C0000DC016D917D918D919C910E942A28C5596E
:103C1000DC4F688379838A839B83CB56D340C55915
:103C2000DC4F88819981AA81BB81CB56D340F801B2
:103C300080839183A283B383CE018D5C9E4F20E06D
:103C400030E040E85FE3DC016D917D918D919C91C6
:103C50000E94A42788234CF4CE01895C9E4F21E06A
:103C600030E0FC0131832083A5C0CE018D5C9E4FE6
:103C700020E03FEF4FE757E4DC016D917D918D919E
:103C80009C910E942528882309F00CF475C0CE0170
:103C9000815D9E4F20E030E040E251E4FC01608114
:103CA0007181828193810E942A28C159DC4F6883E7
:103CB00079838A839B83CF56D340C159DC4F888157
:103CC0009981AA81BB81CF56D340C55FDD4F8883E0
:103CD0009983AA83BB83CB50D2408E01095C1E4FCF
:103CE000C55FDD4F688179818A819B81CB50D2404D
:103CF0000E94A927CD58DC4F688379838A839B83F0
:103D0000C357D340CD58DC4FE881F981C357D34026
:103D1000D8011196FC93EE9326C0CE01875C9E4F8E
:103D200020E931E0DC012D933C93CE01875C9E4F6E
:103D3000FC01808191810197F1F79E01275C3E4F44
:103D4000D9018D939C930000CE01895C9E4F9E010A
:103D5000295C3E4FF9012081318121503109DC017C
:103D600011963C932E93CE01895C9E4FFC0180817D
:103D70009181009791F639C08E01095C1E4FCE01EA
:103D80008D5C9E4FDC016D917D918D919C910E9487
:103D9000A927C958DC4F688379838A839B83C757D7
:103DA000D340C958DC4F88819981C757D340F80167
:103DB00091838083CE01855C9E4F9E01295C3E4F9E
:103DC000D9012D913C91FC0131832083CE01855C8A
:103DD0009E4FDC018D919C910197F1F79E01255C2E
:103DE0003E4FF90191838083000080E090E00E94C3
:103DF000F30281E090E09C878B878FE290E0DC010A
:103E00008C91882F90E084709927009709F42CC238
:103E10009E01235C3E4F80E090E0A0EFB1E4F90109
:103E200080839183A283B3838E010F5B1E4FCE01EB
:103E3000835C9E4F20E030E04AE755E4DC016D9161
:103E40007D918D919C910E942A28C558DC4F6883F2
:103E500079838A839B83CB57D340C558DC4F8881B5
:103E60009981AA81BB81CB57D340F801808391838C
:103E7000A283B383CE018F5B9E4F20E030E040E809
:103E80005FE3DC016D917D918D919C910E94A4274F
:103E900088234CF4CE018B5B9E4F21E030E0FC0187
:103EA00031832083A5C0CE018F5B9E4F20E03FEF82
:103EB0004FE757E4DC016D917D918D919C910E94BB
:103EC0002528882309F00CF475C0CE01835C9E4F31
:103ED00020E030E040E251E4FC01608171818281A8
:103EE00093810E942A28C158DC4F688379838A8392
:103EF0009B83CF57D340C158DC4F88819981AA81D9
:103F0000BB81CF57D340C15FDD4F88839983AA839C
:103F1000BB83CF50D2408E010B5B1E4FC15FDD4F84
:103F2000688179818A819B81CF50D2400E94A927E4
:103F3000CD57DC4F688379838A839B83C358D340F2
:103F4000CD57DC4FE881F981C358D340D801119691
:103F5000FC93EE9326C0CE01895B9E4F20E931E0B1
:103F6000DC012D933C93CE01895B9E4FFC01808147
:103F700091810197F1F79E01295B3E4FD9018D9305
:103F80009C930000CE018B5B9E4F9E012B5B3E4FAE
:103F9000F9012081318121503109DC0111963C93D6
:103FA0002E93CE018B5B9E4FFC0180819181009707
:103FB00091F639C08E010B5B1E4FCE018F5B9E4F79
:103FC000DC016D917D918D919C910E94A927C9572B
:103FD000DC4F688379838A839B83C758D340C95752
:103FE000DC4F88819981C758D340F8019183808341
:103FF000CE01875B9E4F9E012B5B3E4FD9012D91D9
:104000003C91FC0131832083CE01875B9E4FDC0114
:104010008D919C910197F1F79E01275B3E4FF9012D
:104020009183808300008FE290E0DC018C91882FE7
:1040300090E084709927009709F016C19E01255BD6
:104040003E4F80E090E0A0EFB1E4F90180839183DE
:10405000A283B3838E01015B1E4FCE01855B9E4F11
:1040600020E030E04AE755E4DC016D917D918D91CF
:104070009C910E942A28C557DC4F688379838A83E4
:104080009B83CB58D340C557DC4F88819981AA8147
:10409000BB81CB58D340F80180839183A283B38343
:1040A000CE01815B9E4F20E030E040E85FE3DC0121
:1040B0006D917D918D919C910E94A42788234CF451
:1040C000CE018D5A9E4F21E030E0FC0131832083E8
:1040D000A5C0CE01815B9E4F20E03FEF4FE757E444
:1040E000DC016D917D918D919C910E942528882302
:1040F00009F00CF475C0CE01855B9E4F20E030E0E6
:1041000040E251E4FC0160817181828193810E94CF
:104110002A28C157DC4F688379838A839B83CF58D1
:10412000D340C157DC4F88819981AA81BB81CF5888
:10413000D340CD5EDD4F88839983AA83BB83C3516F
:10414000D2408E010D5A1E4FCD5EDD4F68817981C0
:104150008A819B81C351D2400E94A927CD56DC4F52
:10416000688379838A839B83C359D340CD56DC4FC0
:10417000E881F981C359D340D8011196FC93EE939D
:1041800026C0CE018B5A9E4F20E931E0DC012D93F1
:104190003C93CE018B5A9E4FFC0180819181019707
:1041A000F1F79E012B5A3E4FD9018D939C9300004D
:1041B000CE018D5A9E4F9E012D5A3E4FF90120810E
:1041C000318121503109DC0111963C932E93CE01AF
:1041D0008D5A9E4FFC0180819181009791F639C0E4
:1041E0008E010D5A1E4FCE01815B9E4FDC016D91F9
:1041F0007D918D919C910E94A927C956DC4F6883BF
:1042000079838A839B83C759D340C956DC4F888101
:104210009981C759D340F80191838083CE01895A8F
:104220009E4F9E012D5A3E4FD9012D913C91FC018C
:1042300031832083CE01895A9E4FDC018D919C9160
:104240000197F1F79E01295A3E4FF901918380832E
:10425000000084EC0E949B0184EC9FEF0E94F3021B
:1042600085E090E09C8B8B8B8F85988981309105C0
:1042700009F0DBC589899A898130910509F0D5C596
:104280008CE390E00E94550484E090E09C8B8B8B43
:10429000CCC586E091E0DC018C91882F90E08470A1
:1042A0009927009709F411C19E01275A3E4F80E0DB
:1042B00090E0A0EFB1E4F90180839183A283B383FE
:1042C0008E01035A1E4FCE01875A9E4F20E030E0E8
:1042D0004AE755E4DC016D917D918D919C910E949E
:1042E0002A28C556DC4F688379838A839B83CB5900
:1042F000D340C556DC4F88819981AA81BB81CB59B7
:10430000D340F80180839183A283B383CE01835A83
:104310009E4F20E030E040E85FE3DC016D917D914D
:104320008D919C910E94A42788234CF4CE018F5933
:104330009E4F21E030E0FC0131832083A5C0CE01F7
:10434000835A9E4F20E03FEF4FE757E4DC016D9129
:104350007D918D919C910E942528882309F00CF471
:1043600075C0CE01875A9E4F20E030E040E251E414
:10437000FC0160817181828193810E942A28C1564B
:10438000DC4F688379838A839B83CF59D340C1569E
:10439000DC4F88819981AA81BB81CF59D340C95E06
:1043A000DD4F88839983AA83BB83C751D2408E0196
:1043B0000F591E4FC95EDD4F688179818A819B81CB
:1043C000C751D2400E94A927CD55DC4F688379831D
:1043D0008A839B83C35AD340CD55DC4FE881F98152
:1043E000C35AD340D8011196FC93EE9326C0CE0158
:1043F0008D599E4F20E931E0DC012D933C93CE0195
:104400008D599E4FFC01808191810197F1F79E01AA
:104410002D593E4FD9018D939C930000CE018F59A9
:104420009E4F9E012F593E4FF9012081318121502D
:104430003109DC0111963C932E93CE018F599E4F8A
:10444000FC0180819181009791F639C08E010F594E
:104450001E4FCE01835A9E4FDC016D917D918D914F
:104460009C910E94A927C955DC4F688379838A8370
:104470009B83C75AD340C955DC4F88819981C75A5D
:10448000D340F80191838083CE018B599E4F9E01CA
:104490002F593E4FD9012D913C91FC01318320834E
:1044A000CE018B599E4FDC018D919C910197F1F7C4
:1044B0009E012B593E4FF9019183808300001E8697
:1044C0001D8684EC9FEF0E9455048D859E85009784
:1044D00009F0AEC486E091E0DC018C91882F90E079
:1044E00080729927009709F4A3C49E0129593E4F71
:1044F00080E090E0A0EFB1E4F90180839183A28392
:10450000B3838E0105591E4FCE0189599E4F20E07D
:1045100030E04AE755E4DC016D917D918D919C91ED
:104520000E942A28C555DC4F688379838A839B8340
:10453000CB5AD340C555DC4F88819981AA81BB8174
:10454000CB5AD340F80180839183A283B383CE01F9
:1045500085599E4F20E030E040E85FE3DC016D913B
:104560007D918D919C910E94A42788234CF4CE01CB
:1045700081599E4F21E030E0FC0131832083A5C0AA
:10458000CE0185599E4F20E03FEF4FE757E4DC0115
:104590006D917D918D919C910E942528882309F031
:1045A0000CF475C0CE0189599E4F20E030E040E206
:1045B00051E4FC0160817181828193810E942A28EB
:1045C000C155DC4F688379838A839B83CF5AD3405C
:1045D000C155DC4F88819981AA81BB81CF5AD340D4
:1045E000C55EDD4F88839983AA83BB83CB51D240BC
:1045F0008E0101591E4FC55EDD4F688179818A8128
:104600009B81CB51D2400E94A927CD54DC4F6883B7
:1046100079838A839B83C35BD340CD54DC4FE8818D
:10462000F981C35BD340D8011196FC93EE9326C069
:10463000CE018F589E4F20E931E0DC012D933C9351
:10464000CE018F589E4FFC01808191810197F1F737
:104650009E012F583E4FD9018D939C930000CE01AF
:1046600081599E4F9E0121593E4FF9012081318190
:1046700021503109DC0111963C932E93CE018159D2
:104680009E4FFC0180819181009791F639C08E0187
:1046900001591E4FCE0185599E4FDC016D917D91D0
:1046A0008D919C910E94A927C954DC4F688379831E
:1046B0008A839B83C75BD340C954DC4F888199812F
:1046C000C75BD340F80191838083CE018D589E4F04
:1046D0009E0121593E4FD9012D913C91FC0131831E
:1046E0002083CE018D589E4FDC018D919C910197C6
:1046F000F1F79E012D583E4FF90191838083000010
:1047000080E090E00E94550484EC0E949B0184ECC0
:104710009FEF0E94F30281E090E09E878D8785E005
:1047200090E09C8B8B8B84C386E091E0DC018C91C4
:10473000882F90E081709927009709F410C19E019D
:104740002B583E4F80E090E0A0EFB1E4F901808368
:104750009183A283B3838E0107581E4FCE018B58DD
:104760009E4F20E030E04AE755E4DC016D917D91F9
:104770008D919C910E942A28C554DC4F68837983CF
:104780008A839B83CB5BD340C554DC4F888199815E
:10479000AA81BB81CB5BD340F80180839183A28344
:1047A000B383CE0187589E4F20E030E040E85FE3BE
:1047B000DC016D917D918D919C910E94A4278823AD
:1047C0004CF4CE0183589E4F21E030E0FC01318350
:1047D0002083A5C0CE0187589E4F20E03FEF4FE7D2
:1047E00057E4DC016D917D918D919C910E9425286B
:1047F000882309F00CF475C0CE018B589E4F20E041
:1048000030E040E251E4FC0160817181828193815A
:104810000E942A28C154DC4F688379838A839B8352
:10482000CF5BD340C154DC4F88819981AA81BB8181
:10483000CF5BD340C15EDD4F88839983AA83BB835E
:10484000CF51D2408E0103581E4FC15EDD4F6881AB
:1048500079818A819B81CF51D2400E94A927CD5373
:10486000DC4F688379838A839B83C35CD340CD53B9
:10487000DC4FE881F981C35CD340D8011196FC93E9
:10488000EE9326C0CE0181589E4F20E931E0DC0135
:104890002D933C93CE0181589E4FFC0180819181E4
:1048A0000197F1F79E0121583E4FD9018D939C93BA
:1048B0000000CE0183589E4F9E0123583E4FF901C0
:1048C0002081318121503109DC0111963C932E93D6
:1048D000CE0183589E4FFC0180819181009791F613
:1048E00039C08E0103581E4FCE0187589E4FDC0100
:1048F0006D917D918D919C910E94A927C953DC4FA8
:10490000688379838A839B83C75CD340C953DC4F18
:1049100088819981C75CD340F80191838083CE015F
:104920008F579E4F9E0123583E4FD9012D913C91A8
:10493000FC0131832083CE018F579E4FDC018D9186
:104940009C910197F1F79E012F573E4FF9019183FA
:104950008083000080E00E949B011A86198686E011
:1049600091E0DC018C91882F90E08270992700976C
:1049700009F411C19E012D573E4F80E090E0A0EF59
:10498000B1E4F90180839183A283B3838E01095737
:104990001E4FCE018D579E4F20E030E04AE755E490
:1049A000DC016D917D918D919C910E942A28C553C7
:1049B000DC4F688379838A839B83CB5CD340C55368
:1049C000DC4F88819981AA81BB81CB5CD340F801FF
:1049D00080839183A283B383CE0189579E4F20E0C9
:1049E00030E040E85FE3DC016D917D918D919C9119
:1049F0000E94A42788234CF4CE0185579E4F21E0C6
:104A000030E0FC0131832083A5C0CE0189579E4F41
:104A100020E03FEF4FE757E4DC016D917D918D91F0
:104A20009C910E942528882309F00CF475C0CE01C2
:104A30008D579E4F20E030E040E251E4FC01608160
:104A40007181828193810E942A28C153DC4F68833F
:104A500079838A839B83CF5CD340C153DC4F8881A9
:104A60009981AA81BB81CF5CD340CD5DDD4F888326
:104A70009983AA83BB83C352D2408E0105571E4F30
:104A8000CD5DDD4F688179818A819B81C352D2409F
:104A90000E94A927CD52DC4F688379838A839B8348
:104AA000C35DD340CD52DC4FE881F981C35DD34073
:104AB000D8011196FC93EE9326C0CE0183579E4FEA
:104AC00020E931E0DC012D933C93CE0183579E4FCA
:104AD000FC01808191810197F1F79E0123573E4FA0
:104AE000D9018D939C930000CE0185579E4F9E0166
:104AF00025573E4FF9012081318121503109DC01D8
:104B000011963C932E93CE0185579E4FFC018081D8
:104B10009181009791F639C08E0105571E4FCE0145
:104B200089579E4FDC016D917D918D919C910E94E2
:104B3000A927C952DC4F688379838A839B83C75D29
:104B4000D340C952DC4F88819981C75DD340F801B9
:104B500091838083CE0181579E4F9E0125573E4F02
:104B6000D9012D913C91FC0131832083CE018157E5
:104B70009E4FDC018D919C910197F1F79E01215789
:104B80003E4FF90191838083000080E090E00E9415
:104B9000F3021C861B8689859A85009709F04BC114
:104BA0008B859C85009709F046C181E090E09A874B
:104BB000898781E090E09C878B8781E090E09C8BE7
:104BC0008B8B39C182E091E0DC012C9182E091E095
:104BD0002062FC0120838FE290E0DC018C91882F21
:104BE00090E088709927009709F028C19E012F5600
:104BF0003E4F80E090E0A0EFB1E4F9018083918323
:104C0000A283B3838E010B561E4FCE018F569E4F4B
:104C100020E030E04AE755E4DC016D917D918D9113
:104C20009C910E942A28C552DC4F688379838A832D
:104C30009B83CB5DD340C552DC4F88819981AA818B
:104C4000BB81CB5DD340F80180839183A283B38382
:104C5000CE018B569E4F20E030E040E85FE3DC0160
:104C60006D917D918D919C910E94A42788234CF495
:104C7000CE0187569E4F21E030E0FC013183208336
:104C8000A5C0CE018B569E4F20E03FEF4FE757E483
:104C9000DC016D917D918D919C910E942528882346
:104CA00009F00CF475C0CE018F569E4F20E030E025
:104CB00040E251E4FC0160817181828193810E9414
:104CC0002A28C152DC4F688379838A839B83CF5D16
:104CD000D340C152DC4F88819981AA81BB81CF5DCD
:104CE000D340C95DDD4F88839983AA83BB83C752B4
:104CF000D2408E0107561E4FC95DDD4F6881798114
:104D00008A819B81C752D2400E94A927CD51DC4F96
:104D1000688379838A839B83C35ED340CD51DC4F04
:104D2000E881F981C35ED340D8011196FC93EE93DC
:104D300026C0CE0185569E4F20E931E0DC012D933F
:104D40003C93CE0185569E4FFC0180819181019755
:104D5000F1F79E0125563E4FD9018D939C9300009B
:104D6000CE0187569E4F9E0127563E4FF901208166
:104D7000318121503109DC0111963C932E93CE01F3
:104D800087569E4FFC0180819181009791F639C032
:104D90008E0107561E4FCE018B569E4FDC016D9142
:104DA0007D918D919C910E94A927C951DC4F688308
:104DB00079838A839B83C75ED340C951DC4F888146
:104DC0009981C75ED340F80191838083CE018356D9
:104DD0009E4F9E0127563E4FD9012D913C91FC01DB
:104DE00031832083CE0183569E4FDC018D919C91AF
:104DF0000197F1F79E0123563E4FF901918380837D
:104E0000000082E091E0DC012C9182E091E02F7DB6
:104E1000FC01208381E090E09C8B8B8B0FC0000015
:104E20000C94E90500000C94E90500000C94E905D8
:104E300000000C94E90500000C94E90500000C94B6
:104E4000E90597FB072E16F4009407D077FD09D0EB
:104E50000E945F2707FC05D03EF4909581959F4FF7
:104E60000895709561957F4F0895052E97FB1EF468
:104E700000940E944C2757FD07D00E94732707FC1F
:104E800003D04EF40C944C275095409530952195C5
:104E90003F4F4F4F5F4F0895909580957095619566
:104EA0007F4F8F4F9F4F08950E949527A59F900D8C
:104EB000B49F900DA49F800D911D11240895AA1BED
:104EC000BB1B51E107C0AA1FBB1FA617B70710F0F5
:104ED000A61BB70B881F991F5A95A9F78095909527
:104EE000BC01CD010895A1E21A2EAA1BBB1BFD0136
:104EF0000DC0AA1FBB1FEE1FFF1FA217B307E407B9
:104F0000F50720F0A21BB30BE40BF50B661F771F10
:104F1000881F991F1A9469F76095709580959095F0
:104F20009B01AC01BD01CF010895A29FB001B39FC9
:104F3000C001A39F700D811D1124911DB29F700DA2
:104F4000811D1124911D08950E94D82708F481E045
:104F500008950E94042888F09F5798F0B92F992748
:104F6000B751B0F0E1F0660F771F881F991F1AF054
:104F7000BA95C9F714C0B13091F00E941E28B1E073
:104F800008950C941E28672F782F8827B85F39F072
:104F9000B93FCCF3869577956795B395D9F73EF4ED
:104FA00090958095709561957F4F8F4F9F4F089595
:104FB000990F0008550FAA0BE0E8FEEF161617062A
:104FC000E807F907C0F012161306E407F50798F092
:104FD000621B730B840B950B39F40A2661F0232BAB
:104FE000242B252B21F408950A2609F4A140A69527
:104FF0008FEF811D811D089557FD9058440F551F57
:1050000059F05F3F71F04795880F97FB991F61F04A
:105010009F3F79F087950895121613061406551FC1
:10502000F2CF4695F1DF08C0161617061806991F2D
:10503000F1CF86957105610508940895E894BB2722
:1050400066277727CB0197F908950E94D82708F49F
:105050008FEF08950E943D280C94AE280E94A0284E
:1050600038F00E94A72820F0952311F00C9497287F
:105070000C949D2811240C941F280E94FC2770F387
:10508000959FC1F3950F50E0551F629FF001729FED
:10509000BB27F00DB11D639FAA27F00DB11DAA1FFC
:1050A000649F6627B00DA11D661F829F2227B00D49
:1050B000A11D621F739FB00DA11D621F839FA00DD4
:1050C000611D221F749F3327A00D611D231F849F24
:1050D000600D211D822F762F6A2F11249F5750407B
:1050E0009AF0F1F088234AF0EE0FFF1FBB1F661FF6
:1050F000771F881F91505040A9F79E3F510580F0BF
:105100000C9497280C941F285F3FE4F3983ED4F347
:10511000869577956795B795F795E7959F5FC1F762
:10512000FE2B880F911D9695879597F9089597F90D
:105130009F6780E870E060E008959FEF80EC08953D
:1051400000240A9416161706180609060895002466
:105150000A9412161306140605060895092E0394E0
:10516000000C11F4882352F0BB0F40F4BF2B11F454
:1051700060FF04C06F5F7F4F8F4F9F4F0895F8947B
:02518000FFCF5F
:105182000000010002000300000001000200010013
:0C519200000007000600050004000300F8
:00000001FF
