:100000000C9472000C947E000C947E000C947E0084
:100010000C947E000C947E000C947E000C947E0068
:100020000C947E000C947E000C947E000C947E0058
:100030000C947E000C947E000C947E000C947E0048
:100040000C947E000C947E000C947E000C947E0038
:100050000C947E000C947E000C947E000C947E0028
:100060000C947E000C947E000C947E000C947E0018
:100070000C947E000C947E000C947E000C947E0008
:100080000C947E000C947E000C947E000C947E00F8
:100090000C947E000C947E000C947E000C947E00E8
:1000A0000C947E000C947E000C947E000C947E00D8
:1000B0000C947E000C947E000C947E000C947E00C8
:1000C0000C947E000C947E000C947E000C947E00B8
:1000D0000C947E000C947E000C947E000C947E00A8
:1000E0000C947E0011241FBECFEFD1E2DEBFCDBF46
:1000F00000E00CBF0E9433010C944B010C940000F3
:10010000CF93DF93CDB7DEB781E091E0FC01208192
:1001100081E091E02062FC01208381E091E0FC011C
:10012000208181E091E02061FC01208383E390E065
:10013000FC01208183E390E02062FC01208382E0C7
:1001400091E0FC01208182E091E02F7EFC01208380
:1001500084E390E0FC01208184E390E02F7DFC01AA
:1001600020830000DF91CF910895CF93DF9300D0DB
:10017000CDB7DEB78B831A82198240C08B81082EDF
:10018000000C990B47E050E029813A81BA01621BCB
:10019000730B9B01022E02C0959587950A94E2F796
:1001A00081709927009751F082E091E0FC01208155
:1001B00082E091E02062FC01208309C082E091E0AE
:1001C000FC01208182E091E02F7DFC01208382E010
:1001D00091E0FC01208182E091E02061FC0120831C
:1001E00082E091E0FC01208182E091E02F7EFC0121
:1001F000208389819A8101969A83898389819A8152
:100200008730910509F00CF4B9CF000000000F9081
:100210000F900F90DF91CF910895CF93DF930F92BE
:100220000F92CDB7DEB789836A8389810E94B500BA
:100230008A810E94B50084E390E0FC01208184E380
:1002400090E02062FC01208384E390E0FC012081A7
:1002500084E390E02F7DFC01208300000F900F903D
:10026000DF91CF910895CF93DF93CDB7DEB70E9492
:10027000800061E08FEF0E940D0162E089E90E9439
:100280000D0164E084EA0E940D0168E080EC0E94A8
:0A0290000D010000EECFF894FFCF3F
:00000001FF
