:100000000C9472000C9493000C9493000C94930045
:100010000C9493000C9493000C9493000C94930014
:100020000C9493000C9493000C9493000C94930004
:100030000C9493000C9493000C9493000C949300F4
:100040000C9493000C9493000C9493000C949300E4
:100050000C9493000C9493000C9493000C949300D4
:100060000C9493000C9493000C9493000C949300C4
:100070000C9493000C9493000C9493000C949300B4
:100080000C9493000C9493000C9493000C949300A4
:100090000C9493000C9493000C9493000C94930094
:1000A0000C9493000C9493000C9493000C94930084
:1000B0000C9493000C9493000C9493000C94930074
:1000C0000C9493000C9493000C9493000C94930064
:1000D0000C9493000C9493000C9493000C94930054
:1000E0000C94930011241FBECFEFD1E2DEBFCDBF31
:1000F00000E00CBF12E0A0E0B2E0EAECF1E200E0C8
:100100000BBF02C007900D92AC31B107D9F722E0C6
:10011000ACE1B2E001C01D92A032B207E1F70E944B
:1001200007010C94E3100C940000CF93DF93CDB73C
:10013000DEB780E390E0FC01208180E390E02F7E39
:10014000FC01208380E390E0FC01208180E390E0CB
:100150002F7DFC01208380E390E0FC01208180E37F
:1001600090E02D7FFC0120830000DF91CF91089566
:10017000CF93DF93CDB7DEB784E290E0FC0120811E
:1001800084E290E02068FC01208385E290E0FC019D
:10019000208185E290E02068FC01208384E290E0E9
:1001A000FC01208184E290E02F60FC0120838AE042
:1001B00091E0FC0180818AE091E02FEFFC01208337
:1001C00083E390E0FC01208183E390E02360FC0165
:1001D000208385E290E0FC01208185E290E0207F91
:1001E000FC0120838BE091E0FC0180818BE091E0B9
:1001F000FC01108284E390E0FC01208184E390E024
:100200002C7FFC0120830000DF91CF9108950F9394
:100210001F93CF93DF93CDB7DEB7C65BD1400FB648
:10022000F894DEBF0FBECDBF0E94B800CE01855549
:100230009F4F2EE0E0E0F2E0DC0101900D922A9564
:10024000E1F7CE0187549F4F2EE0EEE0F2E0DC01B3
:1002500001900D922A95E1F781E090E09A838983DD
:1002600080911C0290911D028330910509F004F5E4
:1002700085E290E0DC018C91482F80911C029091E6
:100280001D029E0125553F4F880F991F820F931F16
:10029000FC012081318181E090E002C0880F991F2C
:1002A0002A95E2F7242F282B85E290E0DC012C939D
:1002B00080911C0290911D028330910511F10CF187
:1002C0008BE091E0FC018081482F80911C0290918D
:1002D0001D029E0125553F4F880F991F820F931FC6
:1002E000DC012D913C91119781E090E002C0880FD4
:1002F000991F2A95E2F7242F282B8BE091E0FC012F
:10030000208380911C0290911D028630910531F16D
:100310002CF18BE091E0DC018C91482F80911C0244
:1003200090911D029E0125553F4F880F991F820F06
:10033000931FFC012081318181E090E002C0880F91
:10034000991F2A95E2F78095242F28238BE091E0CE
:10035000DC012C9310921D0210921C0280911C0251
:1003600090911D02992344F585E290E0FC01808183
:10037000482F80911C0290911D029E0125553F4FF0
:10038000880F991F820F931FDC012D913C911197CB
:1003900081E090E002C0880F991F2A95E2F78095CE
:1003A000242F282385E290E0FC01208386E090E062
:1003B00090931D0280931C0280911E0290911F0257
:1003C0008130910509F004F584E390E0DC018C9123
:1003D000482F80911E0290911F029E0127543F4F8B
:1003E000880F991F820F931FFC012081318181E0CA
:1003F00090E002C0880F991F2A95E2F7242F282B3E
:1004000084E390E0DC012C9380911E0290911F0206
:100410008130910511F10CF18BE091E0FC018081BC
:10042000482F80911E0290911F029E0127543F4F3A
:10043000880F991F820F931FDC012D913C9111971A
:1004400081E090E002C0880F991F2A95E2F7242FDF
:10045000282B8BE091E0FC01208380911E0290917B
:100460001F028630910531F12CF18BE091E0DC0127
:100470008C91482F80911E0290911F029E0127545B
:100480003F4F880F991F820F931FFC0120813181FC
:1004900081E090E002C0880F991F2A95E2F78095CD
:1004A000242F28238BE091E0DC012C9310921F0273
:1004B00010921E0280911E0290911F02992344F512
:1004C00084E390E0FC018081482F80911E0290918E
:1004D0001F029E0127543F4F880F991F820F931FC1
:1004E000DC012D913C91119781E090E002C0880FD2
:1004F000991F2A95E2F78095242F282384E390E022
:10050000FC01208386E090E090931F0280931E02FE
:1005100089819A818130910541F089819A81823067
:10052000910509F4EBC50C94C60F8FE290E0DC0155
:100530008C91882F90E080719927009709F4D7C19A
:1005400080E090E0A0E2B1E48B839C83AD83BE8326
:1005500020E030E04AE755E46B817C818D819E810B
:100560000E944E10C950DF4F688379838A839B8332
:10057000C75FD040C950DF4F88819981AA81BB8174
:10058000C75FD0408F839887A987BA8720E030E083
:1005900040E85FE36F81788589859A850E94C80F5E
:1005A00088232CF481E090E09C878B8776C020E044
:1005B0003FEF4FE757E46F81788589859A850E94E0
:1005C0004910882309F00CF452C020E030E040E2EA
:1005D00051E46B817C818D819E810E944E10C550BB
:1005E000DF4F688379838A839B83CB5FD040C5507C
:1005F000DF4F88819981AA81BB81CB5FD040C953ED
:10060000DF4F88839983AA83BB83C75CD040C953DB
:10061000DF4F688179818A819B81C75CD0400E94CD
:10062000CD0FC150DF4F688379838A839B83CF5F6F
:10063000D040C150DF4FA881B981CF5FD040BC8787
:10064000AB8710C080E991E09E878D878D859E8560
:100650000197F1F79E878D8700008B859C85019718
:100660009C878B878B859C85009761F721C06F8164
:10067000788589859A850E94CD0FCD5FDE4F68838E
:1006800079838A839B83C350D140CD5FDE4FE8815D
:10069000F981C350D140FC87EB878B859C85988B73
:1006A0008F878F8598890197F1F7988B8F87000046
:1006B00080911C0290911D028330910509F014F580
:1006C00085E290E0DC018C91482F80911C02909192
:1006D0001D029E0125553F4F880F991F820F931FC2
:1006E000FC012081318181E090E002C0880F991FD8
:1006F0002A95E2F78095242F282385E290E0DC01FB
:100700002C9329C080911C0290911D028330910589
:1007100011F10CF18BE091E0FC018081482F809178
:100720001C0290911D029E0125553F4F880F991F75
:10073000820F931FDC012D913C9181E090E002C07B
:10074000880F991F2A95E2F78095242F28238BE0A4
:1007500091E0FC0120838FE290E0DC018C91882FF6
:1007600090E080719927009709F0C1C080E090E087
:10077000A0E2B1E4898B9A8BAB8BBC8B20E030E09C
:100780004AE755E469897A898B899C890E944E10D1
:10079000C95FDE4F688379838A839B83C750D140CA
:1007A000C95FDE4F88819981AA81BB81C750D14042
:1007B0008D8B9E8BAF8BB88F20E030E040E85FE3FD
:1007C0006D897E898F89988D0E94C80F88232CF4AB
:1007D00081E090E09A8F898F76C020E03FEF4FE76D
:1007E00057E46D897E898F89988D0E9449108823EE
:1007F00009F00CF452C020E030E040E251E4698995
:100800007A898B899C890E944E10C55FDE4F688370
:1008100079838A839B83CB50D140C55FDE4F88812B
:100820009981AA81BB81CB50D140C553DF4F8883CA
:100830009983AA83BB83CB5CD040C553DF4F6881CB
:1008400079818A819B81CB5CD0400E94CD0FC15FB2
:10085000DE4F688379838A839B83CF50D140C15F09
:10086000DE4FA881B981CF50D140BA8FA98F10C077
:1008700080E991E09C8F8B8F8B8D9C8D0197F1F798
:100880009C8F8B8F0000898D9A8D01979A8F898F0D
:10089000898D9A8D009761F721C06D897E898F8936
:1008A000988D0E94CD0FCD5EDE4F688379838A8359
:1008B0009B83C351D140CD5EDE4FE881F981C351A6
:1008C000D140FA8FE98F898D9A8D9E8F8D8F8D8D76
:1008D0009E8D0197F1F79E8F8D8F000080911C02F5
:1008E00090911D02019690931D0280931C028FE24D
:1008F00090E0DC018C91882F90E08072992700971E
:1009000009F4D7C180E090E0A0E2B1E48F8F98A312
:10091000A9A3BAA320E030E04AE755E46F8D78A19F
:1009200089A19AA10E944E10C95EDE4F6883798327
:100930008A839B83C751D140C95EDE4F88819981EC
:10094000AA81BB81C751D1408BA39CA3ADA3BEA3F9
:1009500020E030E040E85FE36BA17CA18DA19EA187
:100960000E94C80F88232CF481E090E098A78FA301
:1009700076C020E03FEF4FE757E46BA17CA18DA14B
:100980009EA10E944910882309F00CF452C020E077
:1009900030E040E251E46F8D78A189A19AA10E94D4
:1009A0004E10C55EDE4F688379838A839B83CB516B
:1009B000D140C55EDE4F88819981AA81BB81CB5130
:1009C000D140C153DF4F88839983AA83BB83CF5C17
:1009D000D040C153DF4F688179818A819B81CF5C90
:1009E000D0400E94CD0FC15EDE4F688379838A8339
:1009F0009B83CF51D140C15EDE4FA881B981CF51D9
:100A0000D140B8A7AFA310C080E991E09AA789A709
:100A100089A59AA50197F1F79AA789A700008FA148
:100A200098A5019798A78FA38FA198A5009761F724
:100A300021C06BA17CA18DA19EA10E94CD0FCD5D97
:100A4000DE4F688379838A839B83C352D140CD5D17
:100A5000DE4FE881F981C352D140F8A7EFA38FA1FF
:100A600098A59CA78BA78BA59CA50197F1F79CA7A0
:100A70008BA7000080911C0290911D02833091058C
:100A800009F014F585E290E0DC018C91482F80910B
:100A90001C0290911D029E0125553F4F880F991F02
:100AA000820F931FFC012081318181E090E002C020
:100AB000880F991F2A95E2F78095242F282385E235
:100AC00090E0DC012C9329C080911C0290911D02C2
:100AD0008330910511F10CF18BE091E0FC018081F4
:100AE000482F80911C0290911D029E0125553F4F79
:100AF000880F991F820F931FDC012D913C9181E09B
:100B000090E002C0880F991F2A95E2F78095242F64
:100B100028238BE091E0FC0120838FE290E0DC0150
:100B20008C91882F90E080729927009709F0C1C0BE
:100B300080E090E0A0E2B1E48DA79EA7AFA7B8AB9C
:100B400020E030E04AE755E46DA57EA58FA598A981
:100B50000E944E10C95DDE4F688379838A839B8330
:100B6000C752D140C95DDE4F88819981AA81BB817E
:100B7000C752D14089AB9AABABABBCAB20E030E005
:100B800040E85FE369A97AA98BA99CA90E94C80FD4
:100B900088232CF481E090E09EAB8DAB76C020E002
:100BA0003FEF4FE757E469A97AA98BA99CA90E9456
:100BB0004910882309F00CF452C020E030E040E2F4
:100BC00051E46DA57EA58FA598A90E944E10C55D24
:100BD000DE4F688379838A839B83CB52D140C55D86
:100BE000DE4F88819981AA81BB81CB52D140CD5201
:100BF000DF4F88839983AA83BB83C35DD040CD52E6
:100C0000DF4F688179818A819B81C35DD0400E94DA
:100C1000CD0FC15DDE4F688379838A839B83CF527A
:100C2000D140C15DDE4FA881B981CF52D140BEAB6A
:100C3000ADAB10C080E991E098AF8FAB8FA998ADB4
:100C40000197F1F798AF8FAB00008DA99EA901978E
:100C50009EAB8DAB8DA99EA9009761F721C069A9B4
:100C60007AA98BA99CA90E94CD0FCD5CDE4F688329
:100C700079838A839B83C353D140CD5CDE4FE88167
:100C8000F981C353D140FEABEDAB8DA99EA99AAFBC
:100C900089AF89AD9AAD0197F1F79AAF89AF00009E
:100CA00080911C0290911D02019790931D028093E8
:100CB0001C028FE290E0DC018C91882F90E0827022
:100CC0009927009711F40C94C20F80E090E0A0E205
:100CD000B1E48BAF9CAFADAFBEAF8E01015C1F4FD7
:100CE00020E030E04AE755E46BAD7CAD8DAD9EADC4
:100CF0000E944E10C95CDE4F688379838A839B8390
:100D0000C753D140C95CDE4F88819981AA81BB81DC
:100D1000C753D140F80180839183A283B383CE016E
:100D2000CF9620E030E040E85FE3DC016D917D91FB
:100D30008D919C910E94C80F88234CF4CE018D5B4D
:100D40009F4F21E030E0FC01318320839FC0CE0122
:100D5000CF9620E03FEF4FE757E4DC016D917D91A6
:100D60008D919C910E944910882309F00CF471C068
:100D700020E030E040E251E46BAD7CAD8DAD9EAD46
:100D80000E944E10C55CDE4F688379838A839B8303
:100D9000CB53D140C55CDE4F88819981AA81BB814C
:100DA000CB53D140C952DF4F88839983AA83BB8339
:100DB000C75DD0408E010D5B1F4FC952DF4F688168
:100DC00079818A819B81C75DD0400E94CD0FC15C33
:100DD000DE4F688379838A839B83CF53D140C15C84
:100DE000DE4FE881F981CF53D140D8011196FC93B1
:100DF000EE9326C0CE018B5B9F4F20E931E0DC01F2
:100E00002D933C93CE018B5B9F4FFC0180819181A0
:100E10000197F1F79E012B5B3F4FD9018D939C9376
:100E20000000CE018D5B9F4F9E012D5B3F4FF9016E
:100E30002081318121503109DC0111963C932E93A0
:100E4000CE018D5B9F4FFC0180819181009791F6CF
:100E500038C08E010D5B1F4FCE01CF96DC016D9126
:100E60007D918D919C910E94CD0FCD5BDE4F68836B
:100E700079838A839B83C354D140CD5BDE4F8881C5
:100E80009981C354D140F80191838083CE01895B5D
:100E90009F4F9E012D5B3F4FD9012D913C91FC014D
:100EA00031832083CE01895B9F4FDC018D919C9122
:100EB0000197F1F79E01295B3F4FF90191838083F0
:100EC00000008FE290E0DC018C91882F90E082702E
:100ED0009927009711F00C94C20F9E01275B3F4F9A
:100EE00080E090E0A0E2B1E4F90180839183A283E5
:100EF000B3838E01035B1F4FCE01875B9F4F20E0C2
:100F000030E04AE755E4DC016D917D918D919C9133
:100F10000E944E10C95BDE4F688379838A839B836E
:100F2000C754D140C95BDE4F88819981AA81BB81BA
:100F3000C754D140F80180839183A283B383CE014B
:100F4000835B9F4F20E030E040E85FE3DC016D9180
:100F50007D918D919C910E94C80F88234CF4CE0105
:100F60008F5A9F4F21E030E0FC0131832083A5C0E0
:100F7000CE01835B9F4F20E03FEF4FE757E4DC015A
:100F80006D917D918D919C910E944910882309F06B
:100F90000CF475C0CE01875B9F4F20E030E040E24B
:100FA00051E4FC0160817181828193810E944E1025
:100FB000C55BDE4F688379838A839B83CB54D140A2
:100FC000C55BDE4F88819981AA81BB81CB54D1401A
:100FD000C552DF4F88839983AA83BB83CB5DD04002
:100FE0008E010F5A1F4FC552DF4F688179818A8168
:100FF0009B81CB5DD0400E94CD0FC15BDE4F6883EB
:1010000079838A839B83CF54D140C15BDE4FE881D3
:10101000F981CF54D140D8011196FC93EE9326C0AC
:10102000CE018D5A9F4F20E931E0DC012D933C9396
:10103000CE018D5A9F4FFC01808191810197F1F77C
:101040009E012D5A3F4FD9018D939C930000CE01F4
:101050008F5A9F4F9E012F5A3F4FF90120813181B6
:1010600021503109DC0111963C932E93CE018F5A09
:101070009F4FFC0180819181009791F63AC08E01CB
:101080000F5A1F4FCE01835B9F4FDC016D917D9105
:101090008D919C910E94CD0FCD5ADE4F688379834C
:1010A0008A839B83C355D140CD5ADE4F8881998175
:1010B000C355D140F80191838083CE018B5A9F4F55
:1010C0009E012F5A3F4FD9012D913C91FC01318354
:1010D0002083CE018B5A9F4FDC018D919C911197FB
:1010E0000197F1F79E012B5A3F4FF90191838083BD
:1010F000000082E090E09A83898344C78FE290E009
:10110000DC018C91882F90E080719927009709F479
:101110007EC29E01295A3F4F80E090E0A0E2B1E4F8
:10112000F90180839183A283B3838E01055A1F4FF7
:10113000CE01895A9F4F20E030E04AE755E4DC01B8
:101140006D917D918D919C910E944E10C95ADE4FF8
:10115000688379838A839B83C755D140C95ADE4F00
:1011600088819981AA81BB81C755D140F8018083CC
:101170009183A283B383CE01855A9F4F20E030E054
:1011800040E85FE3DC016D917D918D919C910E941F
:10119000C80F88234CF4CE01815A9F4F21E030E0E4
:1011A000FC0131832083A5C0CE01855A9F4F20E0EA
:1011B0003FEF4FE757E4DC016D917D918D919C915C
:1011C0000E944910882309F00CF475C0CE01895A99
:1011D0009F4F20E030E040E251E4FC0160817181EA
:1011E000828193810E944E10C55ADE4F68837983B5
:1011F0008A839B83CB55D140C55ADE4F8881998124
:10120000AA81BB81CB55D140C152DF4F88839983DE
:10121000AA83BB83CF5DD0408E01015A1F4FC152BC
:10122000DF4F688179818A819B81CF5DD0400E94A8
:10123000CD0FC15ADE4F688379838A839B83CF5554
:10124000D140C15ADE4FE881F981CF55D140D80154
:101250001196FC93EE9326C0CE018F599F4F20E943
:1012600031E0DC012D933C93CE018F599F4FFC015F
:10127000808191810197F1F79E012F593F4FD9014C
:101280008D939C930000CE01815A9F4F9E01215A5D
:101290003F4FF9012081318121503109DC01119644
:1012A0003C932E93CE01815A9F4FFC018081918106
:1012B000009791F63AC08E01015A1F4FCE01855A10
:1012C0009F4FDC016D917D918D919C910E94CD0F7E
:1012D000CD59DE4F688379838A839B83C356D1407F
:1012E000CD59DE4F88819981C356D140F801918351
:1012F0008083CE018D599F4F9E01215A3F4FD901C6
:101300002D913C91FC0131832083CE018D599F4F5B
:10131000DC018D919C9111970197F1F79E012D5958
:101320003F4FF90191838083000080911E029091CC
:101330001F028130910509F014F584E390E0DC018F
:101340008C91482F80911E0290911F029E0127547C
:101350003F4F880F991F820F931FFC01208131811D
:1013600081E090E002C0880F991F2A95E2F78095EE
:10137000242F282384E390E0DC012C9329C0809162
:101380001E0290911F028130910511F10CF18BE04A
:1013900091E0FC018081482F80911E0290911F02F4
:1013A0009E0127543F4F880F991F820F931FDC0126
:1013B0002D913C9181E090E002C0880F991F2A9501
:1013C000E2F78095242F28238BE091E0FC01208315
:1013D0008FE290E0DC018C91882F90E0807199275A
:1013E000009709F014C19E012B593F4F80E090E017
:1013F000A0E2B1E4F90180839183A283B3838E01DB
:1014000007591F4FCE018B599F4F20E030E04AE72C
:1014100055E4DC016D917D918D919C910E944E105F
:10142000C959DE4F688379838A839B83C756D1402D
:10143000C959DE4F88819981AA81BB81C756D140A5
:10144000F80180839183A283B383CE0187599F4F94
:1014500020E030E040E85FE3DC016D917D918D910B
:101460009C910E94C80F88234CF4CE0183599F4F52
:1014700021E030E0FC0131832083A5C0CE018759F3
:101480009F4F20E03FEF4FE757E4DC016D917D91E6
:101490008D919C910E944910882309F00CF475C02D
:1014A000CE018B599F4F20E030E040E251E4FC0137
:1014B00060817181828193810E944E10C559DE4FF7
:1014C000688379838A839B83CB56D140C559DE4F8D
:1014D00088819981AA81BB81CB56D140CD51DF4F04
:1014E00088839983AA83BB83C35ED0408E0103594E
:1014F0001F4FCD51DF4F688179818A819B81C35E07
:10150000D0400E94CD0FC159DE4F688379838A8312
:101510009B83CF56D140C159DE4FE881F981CF5628
:10152000D140D8011196FC93EE9326C0CE0181598B
:101530009F4F20E931E0DC012D933C93CE0181598E
:101540009F4FFC01808191810197F1F79E01215904
:101550003F4FD9018D939C930000CE0183599F4F3B
:101560009E0123593F4FF9012081318121503109DA
:10157000DC0111963C932E93CE0183599F4FFC01C1
:1015800080819181009791F639C08E0103591F4FD8
:10159000CE0187599F4FDC016D917D918D919C917A
:1015A0000E94CD0FCD58DE4F688379838A839B8359
:1015B000C357D140CD58DE4F88819981C357D14060
:1015C000F80191838083CE018F589F4F9E0123594C
:1015D0003F4FD9012D913C91FC0131832083CE01F5
:1015E0008F589F4FDC018D919C910197F1F79E01DF
:1015F0002F583F4FF90191838083000080911E0294
:1016000090911F02019690931F0280931E028FE219
:1016100090E0DC018C91882F90E0807299270097F0
:1016200009F47EC29E012D583F4F80E090E0A0E279
:10163000B1E4F90180839183A283B3838E010958B9
:101640001F4FCE018D589F4F20E030E04AE755E410
:10165000DC016D917D918D919C910E944E10C95835
:10166000DE4F688379838A839B83C757D140C958EB
:10167000DE4F88819981AA81BB81C757D140F8018B
:1016800080839183A283B383CE0189589F4F20E04A
:1016900030E040E85FE3DC016D917D918D919C919C
:1016A0000E94C80F88234CF4CE0185589F4F21E03B
:1016B00030E0FC0131832083A5C0CE0189589F4FC3
:1016C00020E03FEF4FE757E4DC016D917D918D9174
:1016D0009C910E944910882309F00CF475C0CE013A
:1016E0008D589F4F20E030E040E251E4FC016081E2
:1016F0007181828193810E944E10C558DE4F6883AC
:1017000079838A839B83CB57D140C558DE4F88812C
:101710009981AA81BB81CB57D140C951DF4F8883C2
:101720009983AA83BB83C75ED0408E0105581F4FA3
:10173000C951DF4F688179818A819B81C75ED04022
:101740000E94CD0FC158DE4F688379838A839B83C3
:10175000CF57D140C158DE4FE881F981CF57D140F2
:10176000D8011196FC93EE9326C0CE0183589F4F6B
:1017700020E931E0DC012D933C93CE0183589F4F4B
:10178000FC01808191810197F1F79E0123583F4F21
:10179000D9018D939C930000CE0185589F4F9E01E7
:1017A00025583F4FF9012081318121503109DC0159
:1017B00011963C932E93CE0185589F4FFC0180815A
:1017C0009181009791F63AC08E0105581F4FCE01C6
:1017D00089589F4FDC016D917D918D919C910E9464
:1017E000CD0FCD57DE4F688379838A839B83C3589F
:1017F000D140CD57DE4F88819981C358D140F8013F
:1018000091838083CE0181589F4F9E0125583F4F81
:10181000D9012D913C91FC0131832083CE01815867
:101820009F4FDC018D919C9111970197F1F79E01DB
:1018300021583F4FF90191838083000080911E025F
:1018400090911F028130910509F014F584E390E036
:10185000DC018C91482F80911E0290911F029E0105
:1018600027543F4F880F991F820F931FFC0120813F
:10187000318181E090E002C0880F991F2A95E2F73C
:101880008095242F282384E390E0DC012C9329C049
:1018900080911E0290911F028130910511F10CF18F
:1018A0008BE091E0FC018081482F80911E02909195
:1018B0001F029E0127543F4F880F991F820F931FCD
:1018C000DC012D913C9181E090E002C0880F991FCE
:1018D0002A95E2F78095242F28238BE091E0FC01E4
:1018E00020838FE290E0DC018C91882F90E0807261
:1018F0009927009709F014C19E012F573F4F80E0B0
:1019000090E0A0E2B1E4F90180839183A283B383E4
:101910008E010B571F4FCE018F579F4F20E030E0B5
:101920004AE755E4DC016D917D918D919C910E9477
:101930004E10C957DE4F688379838A839B83C758CB
:10194000D140C957DE4F88819981AA81BB81C75890
:10195000D140F80180839183A283B383CE018B575A
:101960009F4F20E030E040E85FE3DC016D917D9126
:101970008D919C910E94C80F88234CF4CE0187570B
:101980009F4F21E030E0FC0131832083A5C0CE01D0
:101990008B579F4F20E03FEF4FE757E4DC016D91FD
:1019A0007D918D919C910E944910882309F00CF43F
:1019B00075C0CE018F579F4F20E030E040E251E4E8
:1019C000FC0160817181828193810E944E10C55714
:1019D000DE4F688379838A839B83CB58D140C55778
:1019E000DE4F88819981AA81BB81CB58D140C551F6
:1019F000DF4F88839983AA83BB83CB5ED0408E015F
:101A000007571F4FC551DF4F688179818A819B81BC
:101A1000CB5ED0400E94CD0FC157DE4F68837983E3
:101A20008A839B83CF58D140C157DE4FE881F9812B
:101A3000CF58D140D8011196FC93EE9326C0CE0129
:101A400085579F4F20E931E0DC012D933C93CE0177
:101A500085579F4FFC01808191810197F1F79E018D
:101A600025573F4FD9018D939C930000CE01875796
:101A70009F4F9E0127573F4FF9012081318121500F
:101A80003109DC0111963C932E93CE0187579F4F6D
:101A9000FC0180819181009791F639C08E01075732
:101AA0001F4FCE018B579F4FDC016D917D918D9122
:101AB0009C910E94CD0FCD56DE4F688379838A8337
:101AC0009B83C359D140CD56DE4F88819981C3593C
:101AD000D140F80191838083CE0183579F4F9E01AF
:101AE00027573F4FD9012D913C91FC013183208331
:101AF000CE0183579F4FDC018D919C910197F1F7A7
:101B00009E0123573F4FF90191838083000080910C
:101B10001E0290911F02019790931F0280931E0254
:101B20008FE290E0DC018C91882F90E08270992701
:101B3000009709F42AC29E0121573F4F80E090E0B0
:101B4000A0E2B1E4F90180839183A283B3838E0183
:101B50000D561F4FCE0181579F4F20E030E04AE7DE
:101B600055E4DC016D917D918D919C910E944E1008
:101B7000C956DE4F688379838A839B83C759D140D6
:101B8000C956DE4F88819981AA81BB81C759D1404E
:101B9000F80180839183A283B383CE018D569F4F3A
:101BA00020E030E040E85FE3DC016D917D918D91B4
:101BB0009C910E94C80F88234CF4CE0189569F4FF8
:101BC00021E030E0FC0131832083A5C0CE018D5699
:101BD0009F4F20E03FEF4FE757E4DC016D917D918F
:101BE0008D919C910E944910882309F00CF475C0D6
:101BF000CE0181579F4F20E030E040E251E4FC01EC
:101C000060817181828193810E944E10C556DE4FA2
:101C1000688379838A839B83CB59D140C556DE4F35
:101C200088819981AA81BB81CB59D140C151DF4FB5
:101C300088839983AA83BB83CF5ED0408E010956E7
:101C40001F4FC151DF4F688179818A819B81CF5EAF
:101C5000D0400E94CD0FC156DE4F688379838A83BE
:101C60009B83CF59D140C156DE4FE881F981CF59CE
:101C7000D140D8011196FC93EE9326C0CE01875631
:101C80009F4F20E931E0DC012D933C93CE01875634
:101C90009F4FFC01808191810197F1F79E012756AA
:101CA0003F4FD9018D939C930000CE0189569F4FE1
:101CB0009E0129563F4FF901208131812150310980
:101CC000DC0111963C932E93CE0189569F4FFC0167
:101CD00080819181009791F639C08E0109561F4F7E
:101CE000CE018D569F4FDC016D917D918D919C9120
:101CF0000E94CD0FCD55DE4F688379838A839B8305
:101D0000C35AD140CD55DE4F88819981C35AD14005
:101D1000F80191838083CE0185569F4F9E012956FD
:101D20003F4FD9012D913C91FC0131832083CE019D
:101D300085569F4FDC018D919C910197F1F79E0193
:101D400025563F4FF9019183808300008FE290E098
:101D5000DC018C91882F90E082709927009709F020
:101D600014C19E0123563F4F80E090E0A0E2B1E411
:101D7000F90180839183A283B3838E010F551F4F96
:101D8000CE0183569F4F20E030E04AE755E4DC0166
:101D90006D917D918D919C910E944E10C955DE4FA1
:101DA000688379838A839B83C75AD140C955DE4FA4
:101DB00088819981AA81BB81C75AD140F80180836B
:101DC0009183A283B383CE018F559F4F20E030E0F3
:101DD00040E85FE3DC016D917D918D919C910E94C3
:101DE000C80F88234CF4CE018B559F4F21E030E083
:101DF000FC0131832083A5C0CE018F559F4F20E089
:101E00003FEF4FE757E4DC016D917D918D919C91FF
:101E10000E944910882309F00CF475C0CE01835646
:101E20009F4F20E030E040E251E4FC01608171818D
:101E3000828193810E944E10C555DE4F688379835D
:101E40008A839B83CB5AD140C555DE4F88819981C7
:101E5000AA81BB81CB5AD140CD50DF4F8883998373
:101E6000AA83BB83C35FD0408E010B551F4FCD505B
:101E7000DF4F688179818A819B81C35FD0400E9456
:101E8000CD0FC155DE4F688379838A839B83CF5AF8
:101E9000D140C155DE4FE881F981CF5AD140D801F8
:101EA0001196FC93EE9326C0CE0189559F4F20E9F1
:101EB00031E0DC012D933C93CE0189559F4FFC010D
:101EC000808191810197F1F79E0129553F4FD901FA
:101ED0008D939C930000CE018B559F4F9E012B55F7
:101EE0003F4FF9012081318121503109DC011196E8
:101EF0003C932E93CE018B559F4FFC0180819181A5
:101F0000009791F63AC08E010B551F4FCE018F55A9
:101F10009F4FDC016D917D918D919C910E94CD0F21
:101F2000CD54DE4F688379838A839B83C35BD14022
:101F3000CD54DE4F88819981C35BD140F8019183F4
:101F40008083CE0187559F4F9E012B553F4FD9016E
:101F50002D913C91FC0131832083CE0187559F4F09
:101F6000DC018D919C9111970197F1F79E01275506
:101F70003F4FF90191838083000081E090E09A83D4
:101F8000898303C000000C94300100000C943001E0
:101F90000E94FC0F08F481E008950E94281088F048
:101FA0009F5798F0B92F9927B751B0F0E1F0660F1D
:101FB000771F881F991F1AF0BA95C9F714C0B1305E
:101FC00091F00E944210B1E008950C944210672FE6
:101FD000782F8827B85F39F0B93FCCF3869577958D
:101FE0006795B395D9F73EF4909580957095619576
:101FF0007F4F8F4F9F4F0895990F0008550FAA0BE1
:10200000E0E8FEEF16161706E807F907C0F012160B
:102010001306E407F50798F0621B730B840B950B0E
:1020200039F40A2661F0232B242B252B21F4089563
:102030000A2609F4A140A6958FEF811D811D089500
:1020400057FD9058440F551F59F05F3F71F0479569
:10205000880F97FB991F61F09F3F79F0879508954E
:10206000121613061406551FF2CF4695F1DF08C06D
:10207000161617061806991FF1CF8695710561058A
:1020800008940895E894BB2766277727CB0197F932
:1020900008950E94FC0F08F48FEF08950E946110CC
:1020A0000C94D2100E94C41038F00E94CB1020F083
:1020B000952311F00C94BB100C94C11011240C94B6
:1020C00043100E94201070F3959FC1F3950F50E0CC
:1020D000551F629FF001729FBB27F00DB11D639FDA
:1020E000AA27F00DB11DAA1F649F6627B00DA11D80
:1020F000661F829F2227B00DA11D621F739FB00D26
:10210000A11D621F839FA00D611D221F749F332795
:10211000A00D611D231F849F600D211D822F762F2E
:102120006A2F11249F5750409AF0F1F088234AF00B
:10213000EE0FFF1FBB1F661F771F881F9150504077
:10214000A9F79E3F510580F00C94BB100C944310EE
:102150005F3FE4F3983ED4F3869577956795B795FE
:10216000F795E7959F5FC1F7FE2B880F911D969518
:10217000879597F9089597F99F6780E870E060E088
:1021800008959FEF80EC089500240A941616170610
:1021900018060906089500240A9412161306140658
:1021A00005060895092E0394000C11F4882352F0BB
:1021B000BB0F40F4BF2B11F460FF04C06F5F7F4F73
:0A21C0008F4F9F4F0895F894FFCF52
:1021CA0000000100020003000000010002000100FB
:0C21DA00000007000600050004000300E0
:00000001FF
