:100000000C9472000C9486000C9486000C9486006C
:100010000C9486000C9486000C9486000C94860048
:100020000C9486000C9486000C9486000C94860038
:100030000C9486000C944F020C947D020C94E00109
:100040000C9486000C9486000C9486000C94860018
:100050000C9486000C94F7000C9425010C948800F5
:100060000C9486000C9486000C9486000C948600F8
:100070000C9486000C9486000C9486000C948600E8
:100080000C9486000C9486000C9486000C948600D8
:100090000C9486000C9486000C9486000C948600C8
:1000A0000C9486000C9486000C9486000C948600B8
:1000B0000C9486000C9486000C9486000C948600A8
:1000C0000C9486000C9486000C9486000C94860098
:1000D0000C9486000C9486000C9486000C94860088
:1000E0000C94860011241FBECFEFD1E2DEBFCDBF3E
:1000F00000E00CBF22E0A0E0B2E001C01D92AC30F5
:10010000B207E1F70E94F5030C94DC180C94000090
:100110001F920F920FB60F9211240BB60F922F93CE
:100120008F939F93EF93FF93CF93DF93CDB7DEB77A
:1001300087E490E0FC0180818823C9F488E490E0A2
:10014000FC018081882399F482E091E0FC01208108
:1001500082E091E02F7BFC01208382E091E0FC01B2
:10016000208182E091E02F7DFC01208331C087E473
:1001700090E0FC018081882399F082E091E0FC010D
:10018000208182E091E02F7DFC01208382E091E0DC
:10019000FC01208182E091E02064FC01208318C0F2
:1001A00088E490E0FC018081882391F082E091E076
:1001B000FC01208182E091E02F7BFC01208382E022
:1001C00091E0FC01208182E091E02062FC0120832B
:1001D0000000DF91CF91FF91EF919F918F912F912F
:1001E0000F900BBE0F900FBE0F901F9018951F928F
:1001F0000F920FB60F9211240BB60F922F938F937D
:100200009F93EF93FF93CF93DF93CDB7DEB787E450
:1002100090E0FC0180818F3F49F082E091E0FC0199
:10022000208182E091E02F7BFC0120830000DF91A0
:10023000CF91FF91EF919F918F912F910F900BBED6
:100240000F900FBE0F901F9018951F920F920FB630
:100250000F9211240BB60F922F938F939F93EF93CE
:10026000FF93CF93DF93CDB7DEB788E490E0FC0136
:1002700080818F3F49F082E091E0FC01208182E0A3
:1002800091E02F7DFC0120830000DF91CF91FF9151
:10029000EF919F918F912F910F900BBE0F900FBEFA
:1002A0000F901F901895CF93DF93CDB7DEB781E005
:1002B00091E0FC01208181E091E02064FC01208339
:1002C00081E091E0FC01208181E091E02062FC016D
:1002D000208382E091E0FC01208182E091E02F7B8D
:1002E000FC01208382E091E0FC01208182E091E02A
:1002F0002F7DFC01208384E490E0FC01108285E4E2
:1003000090E023E0FC01208387E490E0FC01108270
:1003100088E490E0FC0110828EE690E027E0FC018A
:10032000208378940000DF91CF910895CF93DF93DD
:100330000F92CDB7DEB7898389818C39E4F1898149
:10034000843609F0C4F589818823DCF088E490E0E4
:10035000FC0110828981082E000C990B2FEF289F39
:10036000A001299F500D112424E630E0CA01B901F3
:100370000E949917CB019C0187E490E0FC01208347
:100380001AC087E490E0FC0110828981082E000CDD
:10039000990B2FEF289FA001299F500D11242CE9C4
:1003A0003FEFCA01B9010E949917CB019C0188E473
:1003B00090E0FC01208300000F90DF91CF91089521
:1003C0001F920F920FB60F9211240BB60F922F931C
:1003D0008F939F93EF93FF93CF93DF93CDB7DEB7C8
:1003E00083EB90E0FC0180818823C9F484EB90E0EA
:1003F000FC018081882399F482E091E0FC01208156
:1004000082E091E02F7EFC01208382E091E0FC01FC
:10041000208182E091E0277FFC01208331C083EBC3
:1004200090E0FC018081882399F082E091E0FC015A
:10043000208182E091E0277FFC01208382E091E02F
:10044000FC01208182E091E02061FC01208318C042
:1004500084EB90E0FC018081882391F082E091E0C0
:10046000FC01208182E091E02F7EFC01208382E06C
:1004700091E0FC01208182E091E02860FC01208372
:100480000000DF91CF91FF91EF919F918F912F917C
:100490000F900BBE0F900FBE0F901F9018951F92DC
:1004A0000F920FB60F9211240BB60F922F938F93CA
:1004B0009F93EF93FF93CF93DF93CDB7DEB783EB9B
:1004C00090E0FC0180818F3F49F082E091E0FC01E7
:1004D000208182E091E02F7EFC0120830000DF91EB
:1004E000CF91FF91EF919F918F912F910F900BBE24
:1004F0000F900FBE0F901F9018951F920F920FB67E
:100500000F9211240BB60F922F938F939F93EF931B
:10051000FF93CF93DF93CDB7DEB784EB90E0FC0180
:1005200080818F3F49F082E091E0FC01208182E0F0
:1005300091E0277FFC0120830000DF91CF91FF91A4
:10054000EF919F918F912F910F900BBE0F900FBE47
:100550000F901F901895CF93DF93CDB7DEB781E052
:1005600091E0FC01208181E091E02061FC01208389
:1005700081E091E0FC01208181E091E02860FC01B4
:10058000208382E091E0FC01208182E091E02F7ED7
:10059000FC01208382E091E0FC01208182E091E077
:1005A000277FFC01208380EB90E0FC01108281EB2F
:1005B00090E023E0FC01208383EB90E0FC011082BB
:1005C00084EB90E0FC01108280E790E027E0FC01E2
:1005D000208378940000DF91CF910895CF93DF932B
:1005E0000F92CDB7DEB7898389818C39E4F1898197
:1005F000843609F0C4F589818823DCF084EB90E02F
:10060000FC0110828981082E000C990B2FEF289F86
:10061000A001299F500D112424E630E0CA01B90140
:100620000E949917CB019C0183EB90E0FC01208391
:100630001AC083EB90E0FC0110828981082E000C27
:10064000990B2FEF289FA001299F500D11242CE911
:100650003FEFCA01B9010E949917CB019C0184EBBD
:1006600090E0FC01208300000F90DF91CF9108956E
:10067000CF93DF93CDB7DEB784E290E020EEFC01AC
:10068000208385E290E020EEFC01208381E091E070
:10069000FC01208181E091E02062FC01208382E066
:1006A00091E0FC01208182E091E02062FC01208346
:1006B00083E390E023E0FC0120838AE091E02FEFC8
:1006C000FC01208384E290E02FE0FC01208384E39E
:1006D00090E023E0FC0120838BE091E02FEFFC0110
:1006E000208385E290E02FE0FC0120830000DF9171
:1006F000CF910895CF93DF93CDB7DEB780E390E03D
:10070000FC01208180E390E02D7FFC01208380E3C9
:1007100090E0FC01208180E390E02B7FFC012083AE
:1007200080E390E0FC01208180E390E0277FFC01E2
:10073000208380E390E0FC01208180E390E02F7E25
:10074000FC01208380E390E0FC01208180E390E0C5
:100750002F7DFC01208387E091E0FC01208187E070
:1007600091E02E7FFC01208387E091E0FC01208155
:1007700087E091E02D7FFC01208387E091E0FC0180
:10078000208187E091E02B7FFC01208387E091E0CE
:10079000FC01208187E091E0277FFC01208387E036
:1007A00091E0FC01208187E091E02F7EFC01208315
:1007B00087E091E0FC01208187E091E02F7DFC0142
:1007C00020830000DF91CF910895CF93DF93CDB7C1
:1007D000DEB70E9453010E94AB020E9438030E94C0
:1007E0007A030000DF91CF9108950F931F93CF9369
:1007F000DF93CDB7DEB7CC56D2400FB6F894DEBF4C
:100800000FBECDBF0E94E50381E090E09A8389830B
:1008100081E090E09C838B8381E090E098878F83D8
:1008200081E090E09E838D838FE290E0DC018C91EB
:10083000882F90E088709927009709F4BCC080E069
:1008400090E0A8E4B2E489879A87AB87BC8720E070
:1008500030E04AE755E469857A858B859C850E945E
:100860004718C35BDE4F688379838A839B83CD54AB
:10087000D140C35BDE4F88819981AA81BB81CD5471
:10088000D1408D879E87AF87B88B20E030E040E86D
:100890005FE36D857E858F8598890E94C1178823C7
:1008A0002CF481E090E09A8B898B76C020E03FEFBA
:1008B0004FE757E46D857E858F8598890E944218A1
:1008C000882309F00CF452C020E030E040E251E40B
:1008D00069857A858B859C850E944718CF5ADE4FA3
:1008E000688379838A839B83C155D140CF5ADE4F79
:1008F00088819981AA81BB81C155D140CB5FDE4FF0
:1009000088839983AA83BB83C550D140CB5FDE4FD8
:10091000688179818A819B81C550D1400E94C61728
:10092000CB5ADE4F688379838A839B83C555D14038
:10093000CB5ADE4FA881B981C555D140BA8BA98B5E
:1009400010C080E991E09C8B8B8B8B899C890197EF
:10095000F1F79C8B8B8B000089899A8901979A8B80
:10096000898B89899A89009761F721C06D857E8579
:100970008F8598890E94C617C75ADE4F688379838E
:100980008A839B83C955D140C75ADE4FE881F981DC
:10099000C955D140FA8BE98B89899A899E8B8D8BB9
:1009A0008D899E890197F1F79E8B8D8B000086E0E3
:1009B00090E09E838D838FE290E0DC018C91882F04
:1009C00090E084709927009709F0C3C080E090E020
:1009D000A8E4B2E48F8B988FA98FBA8F20E030E023
:1009E0004AE755E46F89788D898D9A8D0E94471862
:1009F000C35ADE4F688379838A839B83CD55D14068
:100A0000C35ADE4F88819981AA81BB81CD55D140DF
:100A10008B8F9C8FAD8FBE8F20E030E040E85FE38E
:100A20006B8D7C8D8D8D9E8D0E94C11788232CF43B
:100A300081E090E098A38F8F76C020E03FEF4FE7F2
:100A400057E46B8D7C8D8D8D9E8D0E94421888237E
:100A500009F00CF452C020E030E040E251E46F892C
:100A6000788D898D9A8D0E944718CF59DE4F688303
:100A700079838A839B83C156D140CF59DE4F8881C9
:100A80009981AA81BB81C156D140C75FDE4F88835F
:100A90009983AA83BB83C950D140C75FDE4F688169
:100AA00079818A819B81C950D1400E94C617CB5958
:100AB000DE4F688379838A839B83C556D140CB59A7
:100AC000DE4FA881B981C556D140B8A3AF8F10C001
:100AD00080E991E09AA389A389A19AA10197F1F7EE
:100AE0009AA389A300008F8D98A1019798A38F8F57
:100AF0008F8D98A1009761F721C06B8D7C8D8D8DB6
:100B00009E8D0E94C617C759DE4F688379838A83FA
:100B10009B83C956D140C759DE4FE881F981C95638
:100B2000D140F8A3EF8F8F8D98A19CA38BA38BA1AD
:100B30009CA10197F1F79CA38BA3000080EB0E947E
:100B4000960180EB9FEF0E94EE0285E090E09E838D
:100B50008D838D819E818630910511F40C945A16F7
:100B60008D819E818630910511F00CF05DCE8D81D6
:100B70009E818530910511F40C9412148D819E8113
:100B80008530910511F00CF04FCE8D819E8184301F
:100B9000910511F40C9487178D819E818430910505
:100BA00011F00CF041CE8D819E818330910509F4C6
:100BB0003EC68D819E818330910511F00CF034CEBC
:100BC0008D819E818130910541F08D819E818230A1
:100BD000910509F4CAC20C94971780E00E9496010F
:100BE00080E090E00E94EE028FE290E0DC018C91C8
:100BF000882F90E080719927009709F4C1C080E0A8
:100C000090E0A8E4B2E48DA39EA3AFA3B8A720E030
:100C100030E04AE755E46DA17EA18FA198A50E941E
:100C20004718C359DE4F688379838A839B83CD56E7
:100C3000D140C359DE4F88819981AA81BB81CD56AD
:100C4000D14089A79AA7ABA7BCA720E030E040E835
:100C50005FE369A57AA58BA59CA50E94C11788238F
:100C60002CF481E090E09EA78DA776C020E03FEFB6
:100C70004FE757E469A57AA58BA59CA50E94421869
:100C8000882309F00CF452C020E030E040E251E447
:100C90006DA17EA18FA198A50E944718CF58DE4F65
:100CA000688379838A839B83C157D140CF58DE4FB5
:100CB00088819981AA81BB81C157D140C35FDE4F32
:100CC00088839983AA83BB83CD50D140C35FDE4F15
:100CD000688179818A819B81CD50D1400E94C6175D
:100CE000CB58DE4F688379838A839B83C557D14075
:100CF000CB58DE4FA881B981C557D140BEA7ADA75B
:100D000010C080E991E098AB8FA78FA598A90197B3
:100D1000F1F798AB8FA700008DA59EA501979EA720
:100D20008DA78DA59EA5009761F721C069A57AA51D
:100D30008BA59CA50E94C617C758DE4F6883798390
:100D40008A839B83C957D140C758DE4FE881F98118
:100D5000C957D140FEA7EDA78DA59EA59AAB89AB3B
:100D600089A99AA90197F1F79AAB89AB0000809104
:100D7000000290910102019690930102809300027B
:100D80008FE290E0DC018C91882F90E080729927AF
:100D9000009709F4CCC080E090E0A8E4B2E48BAB0B
:100DA0009CABADABBEAB20E030E04AE755E46BA9AD
:100DB0007CA98DA99EA90E944718C358DE4F68835D
:100DC00079838A839B83CD57D140C358DE4F888176
:100DD0009981AA81BB81CD57D1408FAB98AFA9AF84
:100DE000BAAF20E030E040E85FE36FA978AD89ADAD
:100DF0009AAD0E94C11788232CF481E090E09CAF4B
:100E00008BAF76C020E03FEF4FE757E46FA978AD96
:100E100089AD9AAD0E944218882309F00CF452C0A3
:100E200020E030E040E251E46BA97CA98DA99EA9A5
:100E30000E944718CF57DE4F688379838A839B834C
:100E4000C158D140CF57DE4F88819981AA81BB819B
:100E5000C158D140CF5EDE4F88839983AA83BB837C
:100E6000C151D140CF5EDE4F688179818A819B81FB
:100E7000C151D1400E94C617CB57DE4F688379839A
:100E80008A839B83C558D140CB57DE4FA881B98157
:100E9000C558D140BCAFABAF10C080E991E09EAF68
:100EA0008DAF8DAD9EAD0197F1F79EAF8DAF000078
:100EB0008BAD9CAD01979CAF8BAF8BAD9CAD00977C
:100EC00061F72CC06FA978AD89AD9AAD0E94C617A5
:100ED000C757DE4F688379838A839B83C958D14083
:100EE000C757DE4FE881F981C958D140FCAFEBAF5D
:100EF0002BAD3CADCE01CF96DC012D933C93CE01C2
:100F0000CF96FC01808191810197F1F79E01215CD0
:100F10003F4FD90111969C938E930000809100025F
:100F200090910102019790930102809300028FE259
:100F300090E0FC018081882F90E0827099270097D3
:100F400011F40C948A179E012F5B3F4F80E090E0D4
:100F5000A8E4B2E4F90180839183A283B3838E0174
:100F60000B5B1F4FCE018F5B9F4F20E030E04AE7C5
:100F700055E4DC016D917D918D919C910E94471803
:100F8000C357DE4F688379838A839B83CD58D140D2
:100F9000C357DE4F88819981AA81BB81CD58D1404A
:100FA000F80180839183A283B383CE018B5B9F4F33
:100FB00020E030E040E85FE3DC016D917D918D91B0
:100FC0009C910E94C11788234CF4CE01875B9F4FF0
:100FD00021E030E0FC0131832083A5C0CE018B5B92
:100FE0009F4F20E03FEF4FE757E4DC016D917D918B
:100FF0008D919C910E944218882309F00CF475C0D1
:10100000CE018F5B9F4F20E030E040E251E4FC01D5
:1010100060817181828193810E944718CF56DE4F93
:10102000688379838A839B83C159D140CF56DE4F31
:1010300088819981AA81BB81C159D140CB5EDE4FA5
:1010400088839983AA83BB83C551D1408E01075BF6
:101050001F4FCB5EDE4F688179818A819B81C551AC
:10106000D1400E94C617CB56DE4F688379838A83AE
:101070009B83C559D140CB56DE4FE881F981C559D4
:10108000D140D8011196FC93EE9326C0CE01855B2A
:101090009F4F20E931E0DC012D933C93CE01855B2D
:1010A0009F4FFC01808191810197F1F79E01255BA3
:1010B0003F4FD9018D939C930000CE01875B9F4FDA
:1010C0009E01275B3F4FF901208131812150310979
:1010D000DC0111963C932E93CE01875B9F4FFC0160
:1010E00080819181009791F63AC08E01075B1F4F76
:1010F000CE018B5B9F4FDC016D917D918D919C9119
:101100000E94C617C756DE4F688379838A839B8304
:10111000C959D140C756DE4F88819981C959D140FC
:10112000F80191838083CE01835B9F4F9E01275BF3
:101130003F4FD9012D913C91FC0131832083CE0199
:10114000835B9F4FDC018D919C9111970197F1F783
:101150009E01235B3F4FF90191838083000082E071
:1011600090E09E838D830C948A178FE290E0DC01DF
:101170008C91882F90E080719927009709F414C111
:101180009E01215B3F4F80E090E0A8E4B2E4F901CA
:1011900080839183A283B3838E010D5A1F4FCE01AA
:1011A000815B9F4F20E030E04AE755E4DC016D9120
:1011B0007D918D919C910E944718C356DE4F6883A4
:1011C00079838A839B83CD59D140C356DE4F888172
:1011D0009981AA81BB81CD59D140F8018083918347
:1011E000A283B383CE018D5A9F4F20E030E040E8C8
:1011F0005FE3DC016D917D918D919C910E94C117FF
:1012000088234CF4CE01895A9F4F21E030E0FC0145
:1012100031832083A5C0CE018D5A9F4F20E03FEF40
:101220004FE757E4DC016D917D918D919C910E9477
:101230004218882309F00CF475C0CE01815B9F4FE2
:1012400020E030E040E251E4FC0160817181828164
:1012500093810E944718CF55DE4F688379838A8334
:101260009B83C15AD140CF55DE4F88819981AA8195
:10127000BB81C15AD140C75EDE4F88839983AA8360
:10128000BB83C951D1408E01095A1F4FC75EDE4F43
:10129000688179818A819B81C951D1400E94C6179A
:1012A000CB55DE4F688379838A839B83C55AD140AF
:1012B000CB55DE4FE881F981C55AD140D80111964E
:1012C000FC93EE9326C0CE01875A9F4F20E931E070
:1012D000DC012D933C93CE01875A9F4FFC01808106
:1012E00091810197F1F79E01275A3F4FD9018D93C4
:1012F0009C930000CE01895A9F4F9E01295A3F4F6F
:10130000F9012081318121503109DC0111963C9392
:101310002E93CE01895A9F4FFC01808191810097C5
:1013200091F639C08E01095A1F4FCE018D5A9F4F39
:10133000DC016D917D918D919C910E94C617C755DE
:10134000DE4F688379838A839B83C95AD140C7550E
:10135000DE4F88819981C95AD140F80191838083F9
:10136000CE01855A9F4F9E01295A3F4FD9012D9199
:101370003C91FC0131832083CE01855A9F4FDC01D3
:101380008D919C910197F1F79E01255A3F4FF901EC
:101390009183808300008091020290910302019664
:1013A00090930302809302028FE290E0DC018C9123
:1013B000882F90E080729927009709F414C19E014C
:1013C000235A3F4F80E090E0A8E4B2E4F901808323
:1013D0009183A283B3838E010F591F4FCE01835A8D
:1013E0009F4F20E030E04AE755E4DC016D917D91AC
:1013F0008D919C910E944718C355DE4F6883798375
:101400008A839B83CD5AD140C355DE4F8881998111
:10141000AA81BB81CD5AD140F80180839183A283F8
:10142000B383CE018F599F4F20E030E040E85FE367
:10143000DC016D917D918D919C910E94C117882353
:101440004CF4CE018B599F4F21E030E0FC013183F9
:101450002083A5C0CE018F599F4F20E03FEF4FE77B
:1014600057E4DC016D917D918D919C910E94421811
:10147000882309F00CF475C0CE01835A9F4F20E0F9
:1014800030E040E251E4FC0160817181828193810E
:101490000E944718CF54DE4F688379838A839B83E9
:1014A000C15BD140CF54DE4F88819981AA81BB8135
:1014B000C15BD140C35EDE4F88839983AA83BB831F
:1014C000CD51D1408E010B591F4FC35EDE4F688155
:1014D00079818A819B81CD51D1400E94C617CB541E
:1014E000DE4F688379838A839B83C55BD140CB546D
:1014F000DE4FE881F981C55BD140D8011196FC939C
:10150000EE9326C0CE0189599F4F20E931E0DC01DE
:101510002D933C93CE0189599F4FFC01808191818D
:101520000197F1F79E0129593F4FD9018D939C9363
:101530000000CE018B599F4F9E012B593F4FF9015F
:101540002081318121503109DC0111963C932E9389
:10155000CE018B599F4FFC0180819181009791F6BC
:1015600039C08E010B591F4FCE018F599F4FDC019F
:101570006D917D918D919C910E94C617C754DE4F4D
:10158000688379838A839B83C95BD140C754DE4FCC
:1015900088819981C95BD140F80191838083CE0114
:1015A00087599F4F9E012B593F4FD9012D913C9157
:1015B000FC0131832083CE0187599F4FDC018D913F
:1015C0009C910197F1F79E0127593F4FF9019183B3
:1015D0008083000080910202909103020197909312
:1015E0000302809302028FE290E0DC018C91882F4D
:1015F00090E082709927009711F40C948D179E014A
:1016000025593F4F80E090E0A8E4B2E4F9018083DF
:101610009183A283B3838E0101591F4FCE01855957
:101620009F4F20E030E04AE755E4DC016D917D9169
:101630008D919C910E944718C354DE4F6883798333
:101640008A839B83CD5BD140C354DE4F88819981CF
:10165000AA81BB81CD5BD140F80180839183A283B5
:10166000B383CE0181599F4F20E030E040E85FE333
:10167000DC016D917D918D919C910E94C117882311
:101680004CF4CE018D589F4F21E030E0FC013183B6
:101690002083A5C0CE0181599F4F20E03FEF4FE747
:1016A00057E4DC016D917D918D919C910E944218CF
:1016B000882309F00CF475C0CE0185599F4F20E0B6
:1016C00030E040E251E4FC016081718182819381CC
:1016D0000E944718CF53DE4F688379838A839B83A8
:1016E000C15CD140CF53DE4F88819981AA81BB81F3
:1016F000C15CD140CF5DDE4F88839983AA83BB83D1
:10170000C152D1408E010D581F4FCF5DDE4F688111
:1017100079818A819B81C152D1400E94C617CB53E7
:10172000DE4F688379838A839B83C55CD140CB532A
:10173000DE4FE881F981C55CD140D8011196FC9358
:10174000EE9326C0CE018B589F4F20E931E0DC019B
:101750002D933C93CE018B589F4FFC01808191814A
:101760000197F1F79E012B583F4FD9018D939C9320
:101770000000CE018D589F4F9E012D583F4FF9011B
:101780002081318121503109DC0111963C932E9347
:10179000CE018D589F4FFC0180819181009791F679
:1017A00039C08E010D581F4FCE0181599F4FDC016A
:1017B0006D917D918D919C910E94C617C753DE4F0C
:1017C000688379838A839B83C95CD140C753DE4F8A
:1017D00088819981C95CD140F80191838083CE01D1
:1017E00089589F4F9E012D583F4FD9012D913C9113
:1017F000FC0131832083CE0189589F4FDC018D91FC
:101800009C910197F1F79E0129583F4FF90191836F
:10181000808300008CE30E9496018CE390E00E949C
:10182000EE0283E090E09E838D830C948D1786E01A
:1018300091E0DC018C91882F90E0887099270097C7
:1018400009F02AC29E0127583F4F80E090E0A8E4AB
:10185000B2E4F90180839183A283B3838E0103589C
:101860001F4FCE0187589F4F20E030E04AE755E4F4
:10187000DC016D917D918D919C910E944718C3531D
:10188000DE4F688379838A839B83CD5CD140C353C9
:10189000DE4F88819981AA81BB81CD5CD140F8015E
:1018A00080839183A283B383CE0183589F4F20E02E
:1018B00030E040E85FE3DC016D917D918D919C917A
:1018C0000E94C11788234CF4CE018F579F4F21E00F
:1018D00030E0FC0131832083A5C0CE0183589F4FA7
:1018E00020E03FEF4FE757E4DC016D917D918D9152
:1018F0009C910E944218882309F00CF475C0CE0117
:1019000087589F4F20E030E040E251E4FC016081C5
:101910007181828193810E944718CF52DE4F688384
:1019200079838A839B83C15DD140CF52DE4F88810A
:101930009981AA81BB81C15DD140CB5DDE4F888397
:101940009983AA83BB83C552D1408E010F571F4F85
:10195000CB5DDE4F688179818A819B81C552D14000
:101960000E94C617CB52DE4F688379838A839B839C
:10197000C55DD140CB52DE4FE881F981C55DD140D4
:10198000D8011196FC93EE9326C0CE018D579F4F40
:1019900020E931E0DC012D933C93CE018D579F4F20
:1019A000FC01808191810197F1F79E012D573F4FF6
:1019B000D9018D939C930000CE018F579F4F9E01BC
:1019C0002F573F4FF9012081318121503109DC012E
:1019D00011963C932E93CE018F579F4FFC0180812F
:1019E0009181009791F639C08E010F571F4FCE019C
:1019F00083589F4FDC016D917D918D919C910E9448
:101A0000C617C752DE4F688379838A839B83C95D7B
:101A1000D140C752DE4F88819981C95DD140F8011C
:101A200091838083CE018B579F4F9E012F573F4F4D
:101A3000D9012D913C91FC0131832083CE018B573C
:101A40009F4FDC018D919C910197F1F79E012B57DF
:101A50003F4FF90191838083000086E091E0DC0133
:101A60008C91882F90E088709927009709F414C111
:101A70009E0129573F4F80E090E0A8E4B2E4F901CD
:101A800080839183A283B3838E0105571F4FCE01BC
:101A900089579F4F20E030E04AE755E4DC016D9123
:101AA0007D918D919C910E944718C352DE4F6883AF
:101AB00079838A839B83CD5DD140C352DE4F888179
:101AC0009981AA81BB81CD5DD140F801808391834A
:101AD000A283B383CE0185579F4F20E030E040E8DA
:101AE0005FE3DC016D917D918D919C910E94C11706
:101AF00088234CF4CE0181579F4F21E030E0FC0158
:101B000031832083A5C0CE0185579F4F20E03FEF52
:101B10004FE757E4DC016D917D918D919C910E947E
:101B20004218882309F00CF475C0CE0189579F4FE5
:101B300020E030E040E251E4FC016081718182816B
:101B400093810E944718CF51DE4F688379838A833F
:101B50009B83C15ED140CF51DE4F88819981AA819C
:101B6000BB81C15ED140C75DDE4F88839983AA8364
:101B7000BB83C952D1408E0101571F4FC75DDE4F55
:101B8000688179818A819B81C952D1400E94C617A0
:101B9000CB51DE4F688379838A839B83C55ED140B6
:101BA000CB51DE4FE881F981C55ED140D801119655
:101BB000FC93EE9326C0CE018F569F4F20E931E073
:101BC000DC012D933C93CE018F569F4FFC01808109
:101BD00091810197F1F79E012F563F4FD9018D93C7
:101BE0009C930000CE0181579F4F9E0121573F4F8C
:101BF000F9012081318121503109DC0111963C939A
:101C00002E93CE0181579F4FFC01808191810097D7
:101C100091F639C08E0101571F4FCE0185579F4F56
:101C2000DC016D917D918D919C910E94C617C751E9
:101C3000DE4F688379838A839B83C95ED140C75115
:101C4000DE4F88819981C95ED140F80191838083FC
:101C5000CE018D569F4F9E0121573F4FD9012D91A7
:101C60003C91FC0131832083CE018D569F4FDC01D6
:101C70008D919C910197F1F79E012D563F4FF901EF
:101C80009183808300008091040290910502019667
:101C9000909305028093040286E091E0DC018C9130
:101CA000882F90E080719927009709F02BC29E0140
:101CB0002B563F4F80E090E0A8E4B2E4F901808326
:101CC0009183A283B3838E0107561F4FCE018B569B
:101CD0009F4F20E030E04AE755E4DC016D917D91B3
:101CE0008D919C910E944718C351DE4F6883798380
:101CF0008A839B83CD5ED140C351DE4F8881998119
:101D0000AA81BB81CD5ED140F80180839183A283FB
:101D1000B383CE0187569F4F20E030E040E85FE379
:101D2000DC016D917D918D919C910E94C11788235A
:101D30004CF4CE0183569F4F21E030E0FC0131830B
:101D40002083A5C0CE0187569F4F20E03FEF4FE78D
:101D500057E4DC016D917D918D919C910E94421818
:101D6000882309F00CF475C0CE018B569F4F20E0FC
:101D700030E040E251E4FC01608171818281938115
:101D80000E944718CF50DE4F688379838A839B83F4
:101D9000C15FD140CF50DE4F88819981AA81BB813C
:101DA000C15FD140C35DDE4F88839983AA83BB8323
:101DB000CD52D1408E0103561F4FC35DDE4F688167
:101DC00079818A819B81CD52D1400E94C617CB5028
:101DD000DE4F688379838A839B83C55FD140CB5074
:101DE000DE4FE881F981C55FD140D8011196FC939F
:101DF000EE9326C0CE0181569F4F20E931E0DC01F1
:101E00002D933C93CE0181569F4FFC01808191819F
:101E10000197F1F79E0121563F4FD9018D939C9375
:101E20000000CE0183569F4F9E0123563F4FF9017C
:101E30002081318121503109DC0111963C932E9390
:101E4000CE0183569F4FFC0180819181009791F6CE
:101E500039C08E0103561F4FCE0187569F4FDC01BC
:101E60006D917D918D919C910E94C617C750DE4F58
:101E7000688379838A839B83C95FD140C750DE4FD3
:101E800088819981C95FD140F80191838083CE0117
:101E90008F559F4F9E0123563F4FD9012D913C9165
:101EA000FC0131832083CE018F559F4FDC018D9142
:101EB0009C910197F1F79E012F553F4FF9019183B6
:101EC0008083000086E091E0DC018C91882F90E017
:101ED00080719927009709F415C19E012D553F4F38
:101EE00080E090E0A8E4B2E4F90180839183A283CA
:101EF000B3838E0109551F4FCE018D559F4F20E0B2
:101F000030E04AE755E4DC016D917D918D919C9123
:101F10000E944718C350DE4F688379838A839B836E
:101F2000CD5FD140C350DE4F88819981AA81BB81AA
:101F3000CD5FD140F80180839183A283B383CE012A
:101F400089559F4F20E030E040E85FE3DC016D9170
:101F50007D918D919C910E94C11788234CF4CE01F4
:101F600085559F4F21E030E0FC0131832083A5C0DF
:101F7000CE0189559F4F20E03FEF4FE757E4DC014A
:101F80006D917D918D919C910E944218882309F05A
:101F90000CF475C0CE018D559F4F20E030E040E23B
:101FA00051E4FC0160817181828193810E94471814
:101FB000CF5FDD4F688379838A839B83C150D24092
:101FC000CF5FDD4F88819981AA81BB81C150D2400A
:101FD000CF5CDE4F88839983AA83BB83C153D140F2
:101FE0008E0105551F4FCF5CDE4F688179818A8154
:101FF0009B81C153D1400E94C617CB5FDD4F6883E0
:1020000079838A839B83C550D240CB5FDD4FE881C3
:10201000F981C550D240D8011196FC93EE9326C0A9
:10202000CE0183559F4F20E931E0DC012D933C9395
:10203000CE0183559F4FFC01808191810197F1F77B
:102040009E0123553F4FD9018D939C930000CE01F3
:1020500085559F4F9E0125553F4FF90120813181C4
:1020600021503109DC0111963C932E93CE01855508
:102070009F4FFC0180819181009791F63AC08E01BB
:1020800005551F4FCE0189559F4FDC016D917D9104
:102090008D919C910E94C617C75FDD4F688379833D
:1020A0008A839B83C950D240C75FDD4F8881998165
:1020B000C950D240F80191838083CE0181559F4F52
:1020C0009E0125553F4FD9012D913C91FC01318353
:1020D0002083CE0181559F4FDC018D919C911197FA
:1020E0000197F1F79E0121553F4FF90191838083BC
:1020F00000008091060290910702019690930702DA
:102100008093060220910002309101028091040226
:10211000909105022817390719F480E00E94960172
:1021200020910202309103028091060290910702F1
:102130002817390721F480E090E00E94EE02809198
:102140000402909105028230910511F41A821982DD
:1021500080910602909107028230910511F41C8251
:102160001B8286E091E0DC018C91882F90E08170E9
:102170009927009709F417C189819A81009709F07E
:1021800012C19E012F543F4F80E090E0A8E4B2E4DA
:10219000F90180839183A283B3838E010B541F4F77
:1021A000CE018F549F4F20E030E04AE755E4DC0138
:1021B0006D917D918D919C910E944718C35FDD4F79
:1021C000688379838A839B83CD50D240C35FDD4F80
:1021D00088819981AA81BB81CD50D240F80180834A
:1021E0009183A283B383CE018B549F4F20E030E0D4
:1021F00040E85FE3DC016D917D918D919C910E949F
:10220000C11788234CF4CE0187549F4F21E030E062
:10221000FC0131832083A5C0CE018B549F4F20E069
:102220003FEF4FE757E4DC016D917D918D919C91DB
:102230000E944218882309F00CF475C0CE018F5417
:102240009F4F20E030E040E251E4FC016081718169
:10225000828193810E944718CF5EDD4F6883798326
:102260008A839B83C151D240CF5EDD4F88819981A3
:10227000AA81BB81C151D240CB5CDE4F8883998358
:10228000AA83BB83C553D1408E0107541F4FCB5C3B
:10229000DE4F688179818A819B81C553D1400E943C
:1022A000C617CB5EDD4F688379838A839B83C551D4
:1022B000D240CB5EDD4FE881F981C551D240D801D3
:1022C0001196FC93EE9326C0CE0185549F4F20E9D2
:1022D00031E0DC012D933C93CE0185549F4FFC01EE
:1022E000808191810197F1F79E0125543F4FD901DB
:1022F0008D939C930000CE0187549F4F9E012754DD
:102300003F4FF9012081318121503109DC011196C3
:102310003C932E93CE0187549F4FFC018081918185
:10232000009791F639C08E0107541F4FCE018B5490
:102330009F4FDC016D917D918D919C910E94C617FC
:10234000C75EDD4F688379838A839B83C951D240FE
:10235000C75EDD4F88819981C951D240F8019183D0
:102360008083CE0183549F4F9E0127543F4FD90154
:102370002D913C91FC0131832083CE0183549F4FEA
:10238000DC018D919C910197F1F79E0123543F4F01
:10239000F90191838083000080E00E94960181E032
:1023A00090E09A83898386E091E0DC018C91882F0C
:1023B00090E082709927009709F418C18B819C8165
:1023C000009709F013C19E0121543F4F80E090E037
:1023D000A8E4B2E4F90180839183A283B3838E01E0
:1023E0000D531F4FCE0181549F4F20E030E04AE74C
:1023F00055E4DC016D917D918D919C910E9447186F
:10240000C35EDD4F688379838A839B83CD51D2403D
:10241000C35EDD4F88819981AA81BB81CD51D240B5
:10242000F80180839183A283B383CE018D539F4FA4
:1024300020E030E040E85FE3DC016D917D918D911B
:102440009C910E94C11788234CF4CE0189539F4F61
:1024500021E030E0FC0131832083A5C0CE018D5303
:102460009F4F20E03FEF4FE757E4DC016D917D91F6
:102470008D919C910E944218882309F00CF475C03C
:10248000CE0181549F4F20E030E040E251E4FC0156
:1024900060817181828193810E944718CF5DDD4FF9
:1024A000688379838A839B83C152D240CF5DDD4F9D
:1024B00088819981AA81BB81C152D240C75CDE4F1D
:1024C00088839983AA83BB83C953D1408E01095362
:1024D0001F4FC75CDE4F688179818A819B81C95318
:1024E000D1400E94C617CB5DDD4F688379838A8314
:1024F0009B83C552D240CB5DDD4FE881F981C55247
:10250000D240D8011196FC93EE9326C0CE0187539A
:102510009F4F20E931E0DC012D933C93CE0187539E
:102520009F4FFC01808191810197F1F79E01275314
:102530003F4FD9018D939C930000CE0189539F4F4B
:102540009E0129533F4FF9012081318121503109EA
:10255000DC0111963C932E93CE0189539F4FFC01D1
:1025600080819181009791F639C08E0109531F4FE8
:10257000CE018D539F4FDC016D917D918D919C918A
:102580000E94C617C75DDD4F688379838A839B836A
:10259000C952D240C75DDD4F88819981C952D2406E
:1025A000F80191838083CE0185539F4F9E0129536B
:1025B0003F4FD9012D913C91FC0131832083CE0105
:1025C00085539F4FDC018D919C910197F1F79E01FE
:1025D00025533F4FF90191838083000080E090E014
:1025E0000E94EE0281E090E09C838B838FE290E07A
:1025F000DC018C91882F90E082709927009709F474
:102600008FC49E0123533F4F80E090E0A8E4B2E4E2
:10261000F90180839183A283B3838E010F521F4FF0
:10262000CE0183539F4F20E030E04AE755E4DC01C0
:102630006D917D918D919C910E944718C35DDD4FF6
:10264000688379838A839B83CD52D240C35DDD4FFB
:1026500088819981AA81BB81CD52D240F8018083C3
:102660009183A283B383CE018F529F4F20E030E04D
:1026700040E85FE3DC016D917D918D919C910E941A
:10268000C11788234CF4CE018B529F4F21E030E0DC
:10269000FC0131832083A5C0CE018F529F4F20E0E3
:1026A0003FEF4FE757E4DC016D917D918D919C9157
:1026B0000E944218882309F00CF475C0CE018353A0
:1026C0009F4F20E030E040E251E4FC0160817181E5
:1026D000828193810E944718CF5CDD4F68837983A4
:1026E0008A839B83C153D240CF5CDD4F888199811F
:1026F000AA81BB81C153D240C35CDE4F88839983DA
:10270000AA83BB83CD53D1408E010B521F4FC35CB4
:10271000DE4F688179818A819B81CD53D1400E94AF
:10272000C617CB5CDD4F688379838A839B83C5534F
:10273000D240CB5CDD4FE881F981C553D240D8014E
:102740001196FC93EE9326C0CE0189529F4F20E94B
:1027500031E0DC012D933C93CE0189529F4FFC0167
:10276000808191810197F1F79E0129523F4FD90154
:102770008D939C930000CE018B529F4F9E012B5254
:102780003F4FF9012081318121503109DC0111963F
:102790003C932E93CE018B529F4FFC0180819181FF
:1027A000009791F63AC08E010B521F4FCE018F5207
:1027B0009F4FDC016D917D918D919C910E94C61778
:1027C000C75CDD4F688379838A839B83C953D2407A
:1027D000C75CDD4F88819981C953D240F80191834C
:1027E0008083CE0187529F4F9E012B523F4FD901CC
:1027F0002D913C91FC0131832083CE0187529F4F64
:10280000DC018D919C9111970197F1F79E01275260
:102810003F4FF90191838083000085E090E09E8323
:102820008D837EC386E091E0DC018C91882F90E05F
:1028300081709927009709F412C19E0125523F4FDC
:1028400080E090E0A8E4B2E4F90180839183A28360
:10285000B3838E0101521F4FCE0185529F4F20E05E
:1028600030E04AE755E4DC016D917D918D919C91BA
:102870000E944718C35CDD4F688379838A839B83FA
:10288000CD53D240C35CDD4F88819981AA81BB8141
:10289000CD53D240F80180839183A283B383CE01CC
:1028A00081529F4F20E030E040E85FE3DC016D9112
:1028B0007D918D919C910E94C11788234CF4CE018B
:1028C0008D519F4F21E030E0FC0131832083A5C072
:1028D000CE0181529F4F20E03FEF4FE757E4DC01EC
:1028E0006D917D918D919C910E944218882309F0F1
:1028F0000CF475C0CE0185529F4F20E030E040E2DD
:1029000051E4FC0160817181828193810E944718AA
:10291000CF5BDD4F688379838A839B83C154D24028
:10292000CF5BDD4F88819981AA81BB81C154D240A0
:10293000CF5BDE4F88839983AA83BB83C154D14088
:102940008E010D511F4FCF5BDE4F688179818A81E7
:102950009B81C154D1400E94C617CB5BDD4F688379
:1029600079838A839B83C554D240CB5BDD4FE8815A
:10297000F981C554D240D8011196FC93EE9326C03C
:10298000CE018B519F4F20E931E0DC012D933C9328
:10299000CE018B519F4FFC01808191810197F1F70E
:1029A0009E012B513F4FD9018D939C930000CE0186
:1029B0008D519F4F9E012D513F4FF9012081318153
:1029C00021503109DC0111963C932E93CE018D519B
:1029D0009F4FFC0180819181009791F639C08E0153
:1029E0000D511F4FCE0181529F4FDC016D917D91A2
:1029F0008D919C910E94C617C75BDD4F68837983D8
:102A00008A839B83C954D240C75BDD4F88819981FB
:102A1000C954D240F80191838083CE0189519F4FE0
:102A20009E012D513F4FD9012D913C91FC013183E5
:102A30002083CE0189519F4FDC018D919C9101979C
:102A4000F1F79E0129513F4FF901918380830000E6
:102A500080E00E94960181E090E09A83898386E07D
:102A600091E0DC018C91882F90E08270992700978B
:102A700009F413C19E0127513F4F80E090E0A8E484
:102A8000B2E4F90180839183A283B3838E01035161
:102A90001F4FCE0187519F4F20E030E04AE755E4B9
:102AA000DC016D917D918D919C910E944718C35BD3
:102AB000DD4F688379838A839B83CD54D240C35B87
:102AC000DD4F88819981AA81BB81CD54D240F80124
:102AD00080839183A283B383CE0183519F4F20E0F3
:102AE00030E040E85FE3DC016D917D918D919C9138
:102AF0000E94C11788234CF4CE018F509F4F21E0D4
:102B000030E0FC0131832083A5C0CE0183519F4F6B
:102B100020E03FEF4FE757E4DC016D917D918D910F
:102B20009C910E944218882309F00CF475C0CE01D4
:102B300087519F4F20E030E040E251E4FC0160818A
:102B40007181828193810E944718CF5ADD4F68833B
:102B500079838A839B83C155D240CF5ADD4F8881C8
:102B60009981AA81BB81C155D240CB5BDE4F88835E
:102B70009983AA83BB83C554D1408E010F501F4F48
:102B8000CB5BDE4F688179818A819B81C554D140BE
:102B90000E94C617CB5ADD4F688379838A839B8353
:102BA000C555D240CB5ADD4FE881F981C555D24099
:102BB000D8011196FC93EE9326C0CE018D509F4F05
:102BC00020E931E0DC012D933C93CE018D509F4FE5
:102BD000FC01808191810197F1F79E012D503F4FBB
:102BE000D9018D939C930000CE018F509F4F9E0181
:102BF0002F503F4FF9012081318121503109DC01F3
:102C000011963C932E93CE018F509F4FFC018081F3
:102C10009181009791F639C08E010F501F4FCE0160
:102C200083519F4FDC016D917D918D919C910E940C
:102C3000C617C75ADD4F688379838A839B83C9553A
:102C4000D240C75ADD4F88819981C955D240F801D9
:102C500091838083CE018B509F4F9E012F503F4F19
:102C6000D9012D913C91FC0131832083CE018B5001
:102C70009F4FDC018D919C910197F1F79E012B50A4
:102C80003F4FF90191838083000080E090E00E9433
:102C9000EE0281E090E09C838B8329813A818B81D5
:102CA0009C812817390709F03EC181E090E09E839E
:102CB0008D8339C181E091E0DC012C9181E091E0CC
:102CC0002062FC0120838FE290E0DC018C91882F50
:102CD00090E088709927009709F028C19E0129503B
:102CE0003F4F80E090E0A8E4B2E4F9018083918353
:102CF000A283B3838E0105501F4FCE0189509F4F91
:102D000020E030E04AE755E4DC016D917D918D9142
:102D10009C910E944718C35ADD4F688379838A8348
:102D20009B83CD55D240C35ADD4F88819981AA81BA
:102D3000BB81CD55D240F80180839183A283B383B8
:102D4000CE0185509F4F20E030E040E85FE3DC019A
:102D50006D917D918D919C910E94C11788234CF4B7
:102D6000CE0181509F4F21E030E0FC013183208370
:102D7000A5C0CE0185509F4F20E03FEF4FE757E4BD
:102D8000DC016D917D918D919C910E944218882368
:102D900009F00CF475C0CE0189509F4F20E030E05F
:102DA00040E251E4FC0160817181828193810E9443
:102DB0004718CF59DD4F688379838A839B83C15637
:102DC000D240CF59DD4F88819981AA81BB81C156FC
:102DD000D240C75BDE4F88839983AA83BB83C954E3
:102DE000D1408E0101501F4FC75BDE4F6881798152
:102DF0008A819B81C954D1400E94C617CB59DD4FAF
:102E0000688379838A839B83C556D240CB59DD4F33
:102E1000E881F981C556D240D8011196FC93EE9312
:102E200026C0CE018F5F9E4F20E931E0DC012D935B
:102E30003C93CE018F5F9E4FFC0180819181019771
:102E4000F1F79E012F5F3E4FD9018D939C930000B7
:102E5000CE0181509F4F9E0121503F4FF9012081AB
:102E6000318121503109DC0111963C932E93CE0122
:102E700081509F4FFC0180819181009791F639C06C
:102E80008E0101501F4FCE0185509F4FDC016D9187
:102E90007D918D919C910E94C617C759DD4F688323
:102EA00079838A839B83C956D240C759DD4F888175
:102EB0009981C956D240F80191838083CE018D5FFC
:102EC0009E4F9E0121503F4FD9012D913C91FC0115
:102ED00031832083CE018D5F9E4FDC018D919C91CB
:102EE0000197F1F79E012D5F3E4FF9019183808399
:102EF000000081E091E0DC012C9181E091E02F7DE8
:102F0000FC01208381E090E09E838D830FC0000050
:102F10000C94140400000C94140400000C94140489
:102F200000000C94140400000C94140400000C9491
:102F3000140497FB072E16F4009407D077FD09D0F0
:102F40000E94AD1707FC05D03EF4909581959F4FE8
:102F50000895709561957F4F0895AA1BBB1B51E1A1
:102F600007C0AA1FBB1FA617B70710F0A61BB70BF9
:102F7000881F991F5A95A9F780959095BC01CD019E
:102F800008950E94F51708F481E008950E94211821
:102F900088F09F5798F0B92F9927B751B0F0E1F01A
:102FA000660F771F881F991F1AF0BA95C9F714C0CA
:102FB000B13091F00E943B18B1E008950C943B1899
:102FC000672F782F8827B85F39F0B93FCCF3869503
:102FD00077956795B395D9F73EF490958095709560
:102FE00061957F4F8F4F9F4F0895990F0008550FA0
:102FF000AA0BE0E8FEEF16161706E807F907C0F07F
:1030000012161306E407F50798F0621B730B840B86
:10301000950B39F40A2661F0232B242B252B21F460
:1030200008950A2609F4A140A6958FEF811D811D00
:10303000089557FD9058440F551F59F05F3F71F0A8
:103040004795880F97FB991F61F09F3F79F087950F
:103050000895121613061406551FF2CF4695F1DF98
:1030600008C0161617061806991FF1CF8695710528
:10307000610508940895E894BB2766277727CB015C
:1030800097F908950E94F51708F48FEF08950E94AC
:103090005A180C94CB180E94BD1838F00E94C4181E
:1030A00020F0952311F00C94B4180C94BA18112444
:1030B0000C943C180E94191870F3959FC1F3950F5A
:1030C00050E0551F629FF001729FBB27F00DB11DAC
:1030D000639FAA27F00DB11DAA1F649F6627B00D3C
:1030E000A11D661F829F2227B00DA11D621F739F25
:1030F000B00DA11D621F839FA00D611D221F749F33
:103100003327A00D611D231F849F600D211D822F79
:10311000762F6A2F11249F5750409AF0F1F08823A0
:103120004AF0EE0FFF1FBB1F661F771F881F9150CD
:103130005040A9F79E3F510580F00C94B4180C94B0
:103140003C185F3FE4F3983ED4F3869577956795F6
:10315000B795F795E7959F5FC1F7FE2B880F911DF7
:103160009695879597F9089597F99F6780E870E09D
:1031700060E008959FEF80EC089500240A941616ED
:10318000170618060906089500240A941216130655
:10319000140605060895092E0394000C11F48823E3
:1031A00052F0BB0F40F4BF2B11F460FF04C06F5FFF
:0C31B0007F4F8F4F9F4F0895F894FFCF82
:00000001FF
